{
  "_format": "hh-sol-artifact-1",
  "contractName": "TestInvoiceFlowContract",
  "sourceName": "contracts/mocks/TestInvoiceFlowContract.sol",
  "abi": [
    {
      "inputs": [
        {
          "internalType": "address[]",
          "name": "_owners",
          "type": "address[]"
        },
        {
          "internalType": "address",
          "name": "_withdrawAddress",
          "type": "address"
        },
        {
          "internalType": "address[]",
          "name": "_acceptedTokens",
          "type": "address[]"
        },
        {
          "internalType": "uint8",
          "name": "_requiredOwnersApprovals",
          "type": "uint8"
        }
      ],
      "stateMutability": "nonpayable",
      "type": "constructor"
    },
    {
      "anonymous": false,
      "inputs": [
        {
          "indexed": false,
          "internalType": "uint256",
          "name": "_id",
          "type": "uint256"
        },
        {
          "indexed": true,
          "internalType": "address",
          "name": "_customer",
          "type": "address"
        },
        {
          "indexed": false,
          "internalType": "uint256",
          "name": "_amount",
          "type": "uint256"
        },
        {
          "indexed": true,
          "internalType": "address",
          "name": "_token",
          "type": "address"
        },
        {
          "indexed": false,
          "internalType": "uint256",
          "name": "_expiration",
          "type": "uint256"
        },
        {
          "indexed": false,
          "internalType": "address",
          "name": "_invoiceContract",
          "type": "address"
        },
        {
          "indexed": false,
          "internalType": "uint256",
          "name": "_receiptTokenId",
          "type": "uint256"
        }
      ],
      "name": "InvoicePaid",
      "type": "event"
    },
    {
      "anonymous": false,
      "inputs": [
        {
          "indexed": false,
          "internalType": "uint256",
          "name": "_id",
          "type": "uint256"
        },
        {
          "indexed": false,
          "internalType": "address",
          "name": "_customer",
          "type": "address"
        },
        {
          "indexed": false,
          "internalType": "uint256",
          "name": "_amount",
          "type": "uint256"
        },
        {
          "indexed": false,
          "internalType": "address",
          "name": "_token",
          "type": "address"
        },
        {
          "indexed": false,
          "internalType": "uint256",
          "name": "_expiration",
          "type": "uint256"
        }
      ],
      "name": "InvoiceRegistered",
      "type": "event"
    },
    {
      "anonymous": false,
      "inputs": [
        {
          "indexed": false,
          "internalType": "uint256",
          "name": "_id",
          "type": "uint256"
        },
        {
          "indexed": false,
          "internalType": "address",
          "name": "_customer",
          "type": "address"
        },
        {
          "indexed": false,
          "internalType": "uint256",
          "name": "_amount",
          "type": "uint256"
        },
        {
          "indexed": false,
          "internalType": "address",
          "name": "_token",
          "type": "address"
        },
        {
          "indexed": false,
          "internalType": "uint256",
          "name": "_expiration",
          "type": "uint256"
        }
      ],
      "name": "InvoiceRemoved",
      "type": "event"
    },
    {
      "anonymous": false,
      "inputs": [
        {
          "indexed": false,
          "internalType": "address",
          "name": "_newAddress",
          "type": "address"
        },
        {
          "indexed": false,
          "internalType": "address",
          "name": "_submitter",
          "type": "address"
        }
      ],
      "name": "WithdrawAddressChangeApproved",
      "type": "event"
    },
    {
      "anonymous": false,
      "inputs": [
        {
          "indexed": false,
          "internalType": "address",
          "name": "_newAddress",
          "type": "address"
        },
        {
          "indexed": false,
          "internalType": "address",
          "name": "_submitter",
          "type": "address"
        }
      ],
      "name": "WithdrawAddressChangeRequested",
      "type": "event"
    },
    {
      "anonymous": false,
      "inputs": [
        {
          "indexed": false,
          "internalType": "address",
          "name": "_oldAddress",
          "type": "address"
        },
        {
          "indexed": false,
          "internalType": "address",
          "name": "_newAddress",
          "type": "address"
        }
      ],
      "name": "WithdrawAddressChanged",
      "type": "event"
    },
    {
      "anonymous": false,
      "inputs": [
        {
          "indexed": false,
          "internalType": "uint256",
          "name": "_id",
          "type": "uint256"
        },
        {
          "indexed": false,
          "internalType": "address",
          "name": "_approver",
          "type": "address"
        },
        {
          "indexed": false,
          "internalType": "uint256",
          "name": "_amount",
          "type": "uint256"
        },
        {
          "indexed": false,
          "internalType": "address",
          "name": "_token",
          "type": "address"
        }
      ],
      "name": "WithdrawRequestApproved",
      "type": "event"
    },
    {
      "anonymous": false,
      "inputs": [
        {
          "indexed": false,
          "internalType": "uint256",
          "name": "_id",
          "type": "uint256"
        },
        {
          "indexed": false,
          "internalType": "uint256",
          "name": "_amount",
          "type": "uint256"
        },
        {
          "indexed": false,
          "internalType": "address",
          "name": "_token",
          "type": "address"
        },
        {
          "indexed": false,
          "internalType": "bool",
          "name": "_executed",
          "type": "bool"
        }
      ],
      "name": "WithdrawRequestExecuted",
      "type": "event"
    },
    {
      "anonymous": false,
      "inputs": [
        {
          "indexed": false,
          "internalType": "uint256",
          "name": "_id",
          "type": "uint256"
        },
        {
          "indexed": false,
          "internalType": "uint256",
          "name": "_amount",
          "type": "uint256"
        },
        {
          "indexed": false,
          "internalType": "address",
          "name": "_token",
          "type": "address"
        },
        {
          "indexed": false,
          "internalType": "bool",
          "name": "_executed",
          "type": "bool"
        }
      ],
      "name": "WithdrawRequestRegistered",
      "type": "event"
    },
    {
      "inputs": [
        {
          "internalType": "uint256",
          "name": "_id",
          "type": "uint256"
        }
      ],
      "name": "approveWithdrawRequest",
      "outputs": [],
      "stateMutability": "nonpayable",
      "type": "function"
    },
    {
      "inputs": [
        {
          "internalType": "address",
          "name": "_newAddress",
          "type": "address"
        }
      ],
      "name": "changeWithdrawAddressRequest",
      "outputs": [],
      "stateMutability": "nonpayable",
      "type": "function"
    },
    {
      "inputs": [],
      "name": "confirmWithdrawAddressChange",
      "outputs": [],
      "stateMutability": "nonpayable",
      "type": "function"
    },
    {
      "inputs": [
        {
          "internalType": "uint256",
          "name": "_id",
          "type": "uint256"
        }
      ],
      "name": "executeWithdrawRequest",
      "outputs": [],
      "stateMutability": "payable",
      "type": "function"
    },
    {
      "inputs": [
        {
          "internalType": "uint256",
          "name": "_amount",
          "type": "uint256"
        },
        {
          "internalType": "address",
          "name": "_token",
          "type": "address"
        }
      ],
      "name": "exposedAddWithdrawRequest",
      "outputs": [
        {
          "internalType": "uint256",
          "name": "",
          "type": "uint256"
        }
      ],
      "stateMutability": "nonpayable",
      "type": "function"
    },
    {
      "inputs": [
        {
          "internalType": "address",
          "name": "_token",
          "type": "address"
        }
      ],
      "name": "getBalance",
      "outputs": [
        {
          "internalType": "uint256",
          "name": "",
          "type": "uint256"
        }
      ],
      "stateMutability": "view",
      "type": "function"
    },
    {
      "inputs": [],
      "name": "getInvoiceIds",
      "outputs": [
        {
          "internalType": "uint256[]",
          "name": "",
          "type": "uint256[]"
        }
      ],
      "stateMutability": "view",
      "type": "function"
    },
    {
      "inputs": [],
      "name": "getSummary",
      "outputs": [
        {
          "internalType": "address[]",
          "name": "",
          "type": "address[]"
        },
        {
          "internalType": "address[]",
          "name": "",
          "type": "address[]"
        },
        {
          "internalType": "address",
          "name": "",
          "type": "address"
        },
        {
          "internalType": "uint256",
          "name": "",
          "type": "uint256"
        }
      ],
      "stateMutability": "view",
      "type": "function"
    },
    {
      "inputs": [
        {
          "internalType": "uint256",
          "name": "_invoiceId",
          "type": "uint256"
        }
      ],
      "name": "handleTransfer",
      "outputs": [],
      "stateMutability": "payable",
      "type": "function"
    },
    {
      "inputs": [
        {
          "internalType": "uint256",
          "name": "",
          "type": "uint256"
        }
      ],
      "name": "invoiceIds",
      "outputs": [
        {
          "internalType": "uint256",
          "name": "",
          "type": "uint256"
        }
      ],
      "stateMutability": "view",
      "type": "function"
    },
    {
      "inputs": [
        {
          "internalType": "uint256",
          "name": "",
          "type": "uint256"
        }
      ],
      "name": "invoices",
      "outputs": [
        {
          "internalType": "address",
          "name": "customer",
          "type": "address"
        },
        {
          "internalType": "uint256",
          "name": "id",
          "type": "uint256"
        },
        {
          "internalType": "uint256",
          "name": "amount",
          "type": "uint256"
        },
        {
          "internalType": "address",
          "name": "token",
          "type": "address"
        },
        {
          "internalType": "uint256",
          "name": "expiration",
          "type": "uint256"
        }
      ],
      "stateMutability": "view",
      "type": "function"
    },
    {
      "inputs": [
        {
          "internalType": "uint256",
          "name": "_id",
          "type": "uint256"
        }
      ],
      "name": "isWithdrawConfirmed",
      "outputs": [
        {
          "internalType": "bool",
          "name": "",
          "type": "bool"
        }
      ],
      "stateMutability": "view",
      "type": "function"
    },
    {
      "inputs": [],
      "name": "newWithdrawAddress",
      "outputs": [
        {
          "internalType": "address",
          "name": "",
          "type": "address"
        }
      ],
      "stateMutability": "view",
      "type": "function"
    },
    {
      "inputs": [
        {
          "internalType": "uint256",
          "name": "",
          "type": "uint256"
        }
      ],
      "name": "owners",
      "outputs": [
        {
          "internalType": "address",
          "name": "",
          "type": "address"
        }
      ],
      "stateMutability": "view",
      "type": "function"
    },
    {
      "inputs": [
        {
          "internalType": "address",
          "name": "",
          "type": "address"
        }
      ],
      "name": "ownersMappings",
      "outputs": [
        {
          "internalType": "bool",
          "name": "",
          "type": "bool"
        }
      ],
      "stateMutability": "view",
      "type": "function"
    },
    {
      "inputs": [],
      "name": "receiptNFT",
      "outputs": [
        {
          "internalType": "contract IReceiptNFT",
          "name": "",
          "type": "address"
        }
      ],
      "stateMutability": "view",
      "type": "function"
    },
    {
      "inputs": [
        {
          "internalType": "uint256",
          "name": "_invoiceId",
          "type": "uint256"
        },
        {
          "internalType": "address",
          "name": "_customer",
          "type": "address"
        },
        {
          "internalType": "uint256",
          "name": "_amount",
          "type": "uint256"
        },
        {
          "internalType": "address",
          "name": "_token",
          "type": "address"
        },
        {
          "internalType": "uint256",
          "name": "_expiresInSec",
          "type": "uint256"
        }
      ],
      "name": "registerInvoice",
      "outputs": [],
      "stateMutability": "nonpayable",
      "type": "function"
    },
    {
      "inputs": [
        {
          "internalType": "uint256",
          "name": "_amount",
          "type": "uint256"
        },
        {
          "internalType": "address",
          "name": "_token",
          "type": "address"
        }
      ],
      "name": "registerWithdrawRequest",
      "outputs": [
        {
          "internalType": "uint256",
          "name": "",
          "type": "uint256"
        }
      ],
      "stateMutability": "nonpayable",
      "type": "function"
    },
    {
      "inputs": [
        {
          "internalType": "uint256",
          "name": "_invoiceId",
          "type": "uint256"
        }
      ],
      "name": "removeInvoice",
      "outputs": [],
      "stateMutability": "nonpayable",
      "type": "function"
    },
    {
      "inputs": [],
      "name": "requiredOwnersApprovals",
      "outputs": [
        {
          "internalType": "uint256",
          "name": "",
          "type": "uint256"
        }
      ],
      "stateMutability": "view",
      "type": "function"
    },
    {
      "inputs": [
        {
          "internalType": "address",
          "name": "_receiptNFT",
          "type": "address"
        }
      ],
      "name": "setReceiptNFT",
      "outputs": [],
      "stateMutability": "nonpayable",
      "type": "function"
    },
    {
      "inputs": [
        {
          "internalType": "uint256",
          "name": "",
          "type": "uint256"
        }
      ],
      "name": "supportedTokensList",
      "outputs": [
        {
          "internalType": "address",
          "name": "",
          "type": "address"
        }
      ],
      "stateMutability": "view",
      "type": "function"
    },
    {
      "inputs": [],
      "name": "withdrawAddress",
      "outputs": [
        {
          "internalType": "address",
          "name": "",
          "type": "address"
        }
      ],
      "stateMutability": "view",
      "type": "function"
    },
    {
      "inputs": [
        {
          "internalType": "address",
          "name": "",
          "type": "address"
        }
      ],
      "name": "withdrawAddressChangeApprovals",
      "outputs": [
        {
          "internalType": "bool",
          "name": "",
          "type": "bool"
        }
      ],
      "stateMutability": "view",
      "type": "function"
    },
    {
      "inputs": [],
      "name": "withdrawAddressChangeConfirmationsCount",
      "outputs": [
        {
          "internalType": "uint256",
          "name": "",
          "type": "uint256"
        }
      ],
      "stateMutability": "view",
      "type": "function"
    },
    {
      "inputs": [
        {
          "internalType": "uint256",
          "name": "_id",
          "type": "uint256"
        }
      ],
      "name": "withdrawRequestConfirmationsCount",
      "outputs": [
        {
          "internalType": "uint256",
          "name": "",
          "type": "uint256"
        }
      ],
      "stateMutability": "view",
      "type": "function"
    },
    {
      "inputs": [
        {
          "internalType": "uint256",
          "name": "",
          "type": "uint256"
        }
      ],
      "name": "withdrawRequests",
      "outputs": [
        {
          "internalType": "uint256",
          "name": "id",
          "type": "uint256"
        },
        {
          "internalType": "uint256",
          "name": "amount",
          "type": "uint256"
        },
        {
          "internalType": "address",
          "name": "token",
          "type": "address"
        },
        {
          "internalType": "bool",
          "name": "executed",
          "type": "bool"
        },
        {
          "internalType": "bytes",
          "name": "data",
          "type": "bytes"
        }
      ],
      "stateMutability": "view",
      "type": "function"
    }
  ],
  "bytecode": "0x608060405260006007553480156200001657600080fd5b5060405162002e7c38038062002e7c8339810160408190526200003991620004e8565b838383836000845111620000945760405162461bcd60e51b815260206004820152601360248201527f4f574e4552535f4152455f52455155495245440000000000000000000000000060448201526064015b60405180910390fd5b6001600160a01b038316620000ec5760405162461bcd60e51b815260206004820152601960248201527f57495448445241575f414444524553535f52455155495245440000000000000060448201526064016200008b565b83518160ff161115620001425760405162461bcd60e51b815260206004820152601860248201527f494e56414c49445f415050524f56414c535f4e554d424552000000000000000060448201526064016200008b565b60ff8116600955600c8054336001600160a01b031991821617909155600880549091166001600160a01b038516179055835162000185600a602087018362000387565b5060005b81811015620001f4576001600b6000888481518110620001ad57620001ad6200057e565b6020908102919091018101516001600160a01b03168252810191909152604001600020805460ff191691151591909117905580620001eb8162000594565b91505062000189565b5060008052600260205260008051602062002e5c8339815191525460ff166200027757600260205260008051602062002e5c833981519152805460ff191660019081179091556003805491820181556000527fc2575a0e9e593c00f959f8c92f12db2869c3395a3b0502d05e2516446f71f85b0180546001600160a01b03191690555b825160005b81811015620003765760008582815181106200029c576200029c6200057e565b6020908102919091018101516001600160a01b0381166000908152600290925260409091205490915060ff1615620002d5575062000361565b6001600160a01b038116620002eb575062000361565b63ffffffff813b16156200035f576001600160a01b0381166000818152600260205260408120805460ff191660019081179091556003805491820181559091527fc2575a0e9e593c00f959f8c92f12db2869c3395a3b0502d05e2516446f71f85b0180546001600160a01b03191690911790555b505b806200036d8162000594565b9150506200027c565b5050505050505050505050620005bc565b828054828255906000526020600020908101928215620003df579160200282015b82811115620003df57825182546001600160a01b0319166001600160a01b03909116178255602090920191600190910190620003a8565b50620003ed929150620003f1565b5090565b5b80821115620003ed5760008155600101620003f2565b634e487b7160e01b600052604160045260246000fd5b80516001600160a01b03811681146200043657600080fd5b919050565b600082601f8301126200044d57600080fd5b815160206001600160401b03808311156200046c576200046c62000408565b8260051b604051601f19603f8301168101818110848211171562000494576200049462000408565b604052938452858101830193838101925087851115620004b357600080fd5b83870191505b84821015620004dd57620004cd826200041e565b83529183019190830190620004b9565b979650505050505050565b60008060008060808587031215620004ff57600080fd5b84516001600160401b03808211156200051757600080fd5b62000525888389016200043b565b955062000535602088016200041e565b945060408701519150808211156200054c57600080fd5b506200055b878288016200043b565b925050606085015160ff811681146200057357600080fd5b939692955090935050565b634e487b7160e01b600052603260045260246000fd5b600060018201620005b557634e487b7160e01b600052601160045260246000fd5b5060010190565b61289080620005cc6000396000f3fe60806040526004361061019c5760003560e01c8063992a7dfb116100ec578063d7a7b8991161008a578063ebb1a6e911610064578063ebb1a6e91461051a578063f296727c1461053a578063f6ede2611461056a578063f8b2cb4f1461058a57600080fd5b8063d7a7b899146104c5578063d854ce47146104e5578063e5a57b52146104fa57600080fd5b8063b7a55f4a116100c6578063b7a55f4a14610445578063c8da205014610465578063d1f26b3f14610485578063d75e172f146104a557600080fd5b8063992a7dfb146103df5780639dbdfa3814610410578063a768e83b1461043057600080fd5b80634e6d14051161015957806363c918771161013357806363c918771461033f57806364f054501461035f578063660fafb41461037f5780636d0aad85146103bf57600080fd5b80634e6d14051461026b57806356ae262c146102f95780635731f10e1461031b57600080fd5b8063025e7c27146101a15780631581b600146101de57806321ebfdda146101fe5780632c87cc80146102135780633e9dee48146102265780634051ddac14610246575b600080fd5b3480156101ad57600080fd5b506101c16101bc366004612338565b6105aa565b6040516001600160a01b0390911681526020015b60405180910390f35b3480156101ea57600080fd5b506008546101c1906001600160a01b031681565b61021161020c366004612338565b6105d4565b005b610211610221366004612338565b610b8f565b34801561023257600080fd5b50610211610241366004612368565b610e23565b34801561025257600080fd5b5061025b610fb8565b6040516101d594939291906123c7565b34801561027757600080fd5b506102c2610286366004612338565b600060208190529081526040902080546001820154600283015460038401546004909401546001600160a01b0393841694929391929091169085565b604080516001600160a01b03968716815260208101959095528401929092529092166060820152608081019190915260a0016101d5565b34801561030557600080fd5b5061030e6110a1565b6040516101d59190612409565b34801561032757600080fd5b5061033160095481565b6040519081526020016101d5565b34801561034b57600080fd5b506101c161035a366004612338565b6110f9565b34801561036b57600080fd5b5061033161037a366004612338565b611109565b34801561038b57600080fd5b506103af61039a366004612368565b600b6020526000908152604090205460ff1681565b60405190151581526020016101d5565b3480156103cb57600080fd5b506103316103da36600461244d565b61119b565b3480156103eb57600080fd5b506103ff6103fa366004612338565b6111ea565b6040516101d59594939291906124c9565b34801561041c57600080fd5b506103af61042b366004612338565b6112b3565b34801561043c57600080fd5b506102116112c9565b34801561045157600080fd5b506006546101c1906001600160a01b031681565b34801561047157600080fd5b5061033161048036600461244d565b611496565b34801561049157600080fd5b506102116104a0366004612368565b6114a2565b3480156104b157600080fd5b506102116104c0366004612338565b6114f3565b3480156104d157600080fd5b50600d546101c1906001600160a01b031681565b3480156104f157600080fd5b50610331611687565b34801561050657600080fd5b50610331610515366004612338565b611704565b34801561052657600080fd5b50610211610535366004612338565b611725565b34801561054657600080fd5b506103af610555366004612368565b60056020526000908152604090205460ff1681565b34801561057657600080fd5b506102116105853660046124fe565b6118af565b34801561059657600080fd5b506103316105a5366004612368565b611c29565b600a81815481106105ba57600080fd5b6000918252602090912001546001600160a01b0316905081565b60008181526020819052604090206001810154821461062e5760405162461bcd60e51b815260206004820152601160248201527012539593d250d157d393d517d193d55391607a1b60448201526064015b60405180910390fd5b80546001600160a01b031633146106875760405162461bcd60e51b815260206004820152601a60248201527f435553544f4d45525f414444524553535f4e4f545f4d415443480000000000006044820152606401610625565b80600401544211156106cd5760405162461bcd60e51b815260206004820152600f60248201526e12539593d250d157d1561412549151608a1b6044820152606401610625565b60038101546000906001600160a01b03163b63ffffffff16156109d05760038201546002830154604051636eb1769f60e11b81523360048201523060248201526001600160a01b0390921691829063dd62ed3e90604401602060405180830381865afa158015610741573d6000803e3d6000fd5b505050506040513d601f19601f82011682018060405250810190610765919061254c565b10156107b35760405162461bcd60e51b815260206004820152601860248201527f414c4c4f57414e43455f4e4f545f53554646494349454e5400000000000000006044820152606401610625565b60028301546040516370a0823160e01b81523360048201526001600160a01b038316906370a0823190602401602060405180830381865afa1580156107fc573d6000803e3d6000fd5b505050506040513d601f19601f82011682018060405250810190610820919061254c565b101561083e5760405162461bcd60e51b815260040161062590612565565b600283015461085b906001600160a01b0383169033903090611cad565b600d546001600160a01b03161561090357600d546003840154600285015460405163a90c49f960e01b8152306004820152602481018890523360448201526001600160a01b039283166064820152608481019190915291169063a90c49f99060a4016020604051808303816000875af11580156108dc573d6000803e3d6000fd5b505050506040513d601f19601f82011682018060405250810190610900919061254c565b91505b600084815260208181526040918290206003810154815460018301546002840154600490940154865191825294810193909352828501939093523060608301526080820186905292516001600160a01b0393841693909216917ffb0334966223b642c2f9583e0e38f56d30df89aefa1d2d54f859804febf4ad329181900360a00190a3600084815260208190526040812080546001600160a01b0319908116825560018201839055600282018390556003820180549091169055600401556109ca84611d18565b50505050565b34826002015414610a1b5760405162461bcd60e51b81526020600482015260156024820152740a68a9ca8be829a9eaa9ca8be9c9ea8be9a82a8869605b1b6044820152606401610625565b600d546001600160a01b031615610ac357600d546003830154600284015460405163a90c49f960e01b8152306004820152602481018790523360448201526001600160a01b039283166064820152608481019190915291169063a90c49f99060a4016020604051808303816000875af1158015610a9c573d6000803e3d6000fd5b505050506040513d601f19601f82011682018060405250810190610ac0919061254c565b90505b600083815260208181526040918290206003810154815460018301546002840154600490940154865191825294810193909352828501939093523060608301526080820185905292516001600160a01b0393841693909216917ffb0334966223b642c2f9583e0e38f56d30df89aefa1d2d54f859804febf4ad329181900360a00190a3600083815260208190526040812080546001600160a01b031990811682556001820183905560028201839055600382018054909116905560040155610b8a83611d18565b505050565b336000908152600b602052604090205460ff16610bbe5760405162461bcd60e51b815260040161062590612593565b610bc7816112b3565b610c135760405162461bcd60e51b815260206004820152601860248201527f4e4f545f454e4f5547485f434f4e4649524d4154494f4e5300000000000000006044820152606401610625565b600081815260046020526040902060020154600160a01b900460ff1615610c785760405162461bcd60e51b815260206004820152601960248201527815d2551211149055d7d053149150511657d1561150d5551151603a1b6044820152606401610625565b6000818152600460205260409020600201546001600160a01b0316610dd85760008181526004602052604080822060028101805460ff60a01b1916600160a01b179055600854600182015492516001600160a01b039091169291610ce1916003909101906125ed565b60006040518083038185875af1925050503d8060008114610d1e576040519150601f19603f3d011682016040523d82523d6000602084013e610d23565b606091505b5050905080610d6a5760405162461bcd60e51b815260206004820152601360248201527211551217d514905394d1915497d19052531151606a1b6044820152606401610625565b6000828152600460209081526040918290206001808201546002909201548451878152938401929092526001600160a01b0390911682840152606082015290517fd06473f54f367f5bec1000de7268f9b7f60b1da5f67c03fae9186fdbf320dba99181900360800190a15050565b600081815260046020526040902060028101805460ff60a01b198116600160a01b179091556008546001909201546001600160a01b0391821692610d6a928492911690611d32565b50565b336000908152600b602052604090205460ff16610e525760405162461bcd60e51b815260040161062590612593565b6001600160a01b038116610e9a5760405162461bcd60e51b815260206004820152600f60248201526e494e56414c49445f4144445245535360881b6044820152606401610625565b6008546001600160a01b03808316911603610ef75760405162461bcd60e51b815260206004820152601760248201527f4e45575f414444524553535f4d5553545f42455f5345540000000000000000006044820152606401610625565b60005b600a54811015610f595760056000600a8381548110610f1b57610f1b612663565b60009182526020808320909101546001600160a01b031683528201929092526040019020805460ff1916905580610f518161268f565b915050610efa565b50600680546001600160a01b0319166001600160a01b038316908117909155604080519182523360208301527f2b0922972416e22d209302789a7a347ca228dcdfa06b0fb9f6530493c5434b7d910160405180910390a1610e206112c9565b606080600080600a6003600860009054906101000a90046001600160a01b03166009548380548060200260200160405190810160405280929190818152602001828054801561103057602002820191906000526020600020905b81546001600160a01b03168152600190910190602001808311611012575b505050505093508280548060200260200160405190810160405280929190818152602001828054801561108c57602002820191906000526020600020905b81546001600160a01b0316815260019091019060200180831161106e575b50505050509250935093509350935090919293565b606060018054806020026020016040519081016040528092919081815260200182805480156110ef57602002820191906000526020600020905b8154815260200190600101908083116110db575b5050505050905090565b600381815481106105ba57600080fd5b600080805b600a5481101561119457600460008581526020019081526020016000206004016000600a838154811061114357611143612663565b60009182526020808320909101546001600160a01b0316835282019290925260400190205460ff161515600103611182578161117e8161268f565b9250505b8061118c8161268f565b91505061110e565b5092915050565b336000908152600b602052604081205460ff166111ca5760405162461bcd60e51b815260040161062590612593565b60006111d68484611d62565b90506111e1816114f3565b90505b92915050565b6004602052600090815260409020805460018201546002830154600384018054939492936001600160a01b03831693600160a01b90930460ff16929190611230906125b9565b80601f016020809104026020016040519081016040528092919081815260200182805461125c906125b9565b80156112a95780601f1061127e576101008083540402835291602001916112a9565b820191906000526020600020905b81548152906001019060200180831161128c57829003601f168201915b5050505050905085565b60006009546112c183611109565b101592915050565b336000908152600b602052604090205460ff166112f85760405162461bcd60e51b815260040161062590612593565b3360009081526005602052604090205460ff161561134c5760405162461bcd60e51b81526020600482015260116024820152701053149150511657d0d3d3919254935151607a1b6044820152606401610625565b33600081815260056020908152604091829020805460ff1916600117905560065482516001600160a01b039091168152908101929092527fddba811775e7d1ebcf528735a977db455687c2efa4f71b2f394e82470872ecd1910160405180910390a16009546113b9611687565b106114945760088054600680546001600160a01b03198084166001600160a01b03838116919091179095551690551660005b600a5481101561144a5760056000600a838154811061140c5761140c612663565b60009182526020808320909101546001600160a01b031683528201929092526040019020805460ff19169055806114428161268f565b9150506113eb565b50600854604080516001600160a01b03808516825290921660208301527f49309b5d08d7bbaebcda96dda577818eee99f98cd01bb4a546ffb81653b40041910160405180910390a1505b565b60006111e18383611d62565b336000908152600b602052604090205460ff166114d15760405162461bcd60e51b815260040161062590612593565b600d80546001600160a01b0319166001600160a01b0392909216919091179055565b336000908152600b602052604090205460ff166115225760405162461bcd60e51b815260040161062590612593565b600081815260046020526040902060020154600160a01b900460ff16156115875760405162461bcd60e51b815260206004820152601960248201527815d2551211149055d7d053149150511657d1561150d5551151603a1b6044820152606401610625565b6000818152600460208181526040808420338552909201905290205460ff16156115e75760405162461bcd60e51b81526020600482015260116024820152701053149150511657d0d3d3919254935151607a1b6044820152606401610625565b6000818152600460208181526040808420338086528185018452828620805460ff1916600190811790915595879052938352938401546002909401548151868152928301939093528101929092526001600160a01b031660608201527f290e497efdb0dd5ff1b04494163110ffcef2979c5bc76a9a26a9368f2f6249f29060800160405180910390a1611679816112b3565b15610e2057610e2081610b8f565b600080805b600a548110156116fe5760056000600a83815481106116ad576116ad612663565b60009182526020808320909101546001600160a01b0316835282019290925260400190205460ff1615156001036116ec57816116e88161268f565b9250505b806116f68161268f565b91505061168c565b50919050565b6001818154811061171457600080fd5b600091825260209091200154905081565b336000908152600b602052604090205460ff166117545760405162461bcd60e51b815260040161062590612593565b600081116117995760405162461bcd60e51b81526020600482015260126024820152711253959053125117d2539593d250d157d25160721b6044820152606401610625565b60008181526020819052604090206001015481146117ed5760405162461bcd60e51b815260206004820152601160248201527012539593d250d157d393d517d193d55391607a1b6044820152606401610625565b60008181526020818152604091829020600181015481546002830154600384015460049094015486519384526001600160a01b0392831695840195909552948201949094529216606083015260808201527f4a9220e3f51737c89f656dd6c1b766250e200d6d80c4f1cdcfad85909e68109e9060a00160405180910390a1600081815260208190526040812080546001600160a01b031990811682556001820183905560028201839055600382018054909116905560040155610e2081611d18565b336000908152600b602052604090205460ff166118de5760405162461bcd60e51b815260040161062590612593565b6000831161191f5760405162461bcd60e51b815260206004820152600e60248201526d1253959053125117d05353d5539560921b6044820152606401610625565b6001600160a01b0384166119675760405162461bcd60e51b815260206004820152600f60248201526e494e56414c49445f4144445245535360881b6044820152606401610625565b600085116119ac5760405162461bcd60e51b81526020600482015260126024820152711253959053125117d2539593d250d157d25160721b6044820152606401610625565b600081116119fc5760405162461bcd60e51b815260206004820152601860248201527f494e56414c49445f45585049524154494f4e5f56414c554500000000000000006044820152606401610625565b6001600160a01b03821660009081526002602052604090205460ff161515600114611a655760405162461bcd60e51b8152602060048201526019602482015278115490cc8c17d513d2d15397d393d517d4d5541413d4951151603a1b6044820152606401610625565b60008581526020819052604090206004015415611abc5760405162461bcd60e51b815260206004820152601560248201527412539593d250d157d053149150511657d1561254d5605a1b6044820152606401610625565b6000611ac882426126a8565b905060018690806001815401808255809150506001900390600052602060002001600090919091909150556040518060a00160405280866001600160a01b03168152602001878152602001858152602001846001600160a01b031681526020018281525060008088815260200190815260200160002060008201518160000160006101000a8154816001600160a01b0302191690836001600160a01b03160217905550602082015181600101556040820151816002015560608201518160030160006101000a8154816001600160a01b0302191690836001600160a01b03160217905550608082015181600401559050507f5b7ac58adf4d4afccc6b58de721e6d756f26d1741c8cbfee9e890c919f972a218686868685604051611c199594939291909485526001600160a01b03938416602086015260408501929092529091166060830152608082015260a00190565b60405180910390a1505050505050565b60006001600160a01b038216611c40575047919050565b6040516370a0823160e01b81523060048201526001600160a01b038316906370a0823190602401602060405180830381865afa158015611c84573d6000803e3d6000fd5b505050506040513d601f19601f820116820180604052508101906111e4919061254c565b919050565b6040516001600160a01b03808516602483015283166044820152606481018290526109ca9085906323b872dd60e01b906084015b60408051601f198184030181529190526020810180516001600160e01b03166001600160e01b031990931692909217909152611fb0565b6000611d2382612082565b9050611d2e81612111565b5050565b6040516001600160a01b038316602482015260448101829052610b8a90849063a9059cbb60e01b90606401611ce1565b336000908152600b602052604081205460ff16611d915760405162461bcd60e51b815260040161062590612593565b60008311611dd25760405162461bcd60e51b815260206004820152600e60248201526d1253959053125117d05353d5539560921b6044820152606401610625565b6001600160a01b03821660009081526002602052604090205460ff161515600114611e3b5760405162461bcd60e51b8152602060048201526019602482015278115490cc8c17d513d2d15397d393d517d4d5541413d4951151603a1b6044820152606401610625565b6001600160a01b03821615611eda576040516370a0823160e01b8152306004820152829084906001600160a01b038316906370a0823190602401602060405180830381865afa158015611e92573d6000803e3d6000fd5b505050506040513d601f19601f82011682018060405250810190611eb6919061254c565b1015611ed45760405162461bcd60e51b815260040161062590612565565b50611efa565b82471015611efa5760405162461bcd60e51b815260040161062590612565565b600754611f089060016126a8565b60078190556000818152600460205260408120918255600182018590556002820180546001600160a81b0319166001600160a01b0386161790556003820190611f539036908361271f565b5060075460408051918252602082018690526001600160a01b0385168282015260006060830152517f3de41e8a78563f837e9e091c8c40d5f855aea89fcbf3ed310fb145a740e5fa3f9181900360800190a1505060075492915050565b6000612005826040518060400160405280602081526020017f5361666545524332303a206c6f772d6c6576656c2063616c6c206661696c6564815250856001600160a01b03166121a89092919063ffffffff16565b805190915015610b8a578080602001905181019061202391906127e0565b610b8a5760405162461bcd60e51b815260206004820152602a60248201527f5361666545524332303a204552433230206f7065726174696f6e20646964206e6044820152691bdd081cdd58d8d9595960b21b6064820152608401610625565b600154600090815b818110156120cf5783600182815481106120a6576120a6612663565b9060005260206000200154036120bd579392505050565b806120c78161268f565b91505061208a565b5060405162461bcd60e51b815260206004820152601660248201527512539593d250d157d25117d393d517d25397d31254d560521b6044820152606401610625565b6001805461211f9190612802565b81101561217e57600161213282826126a8565b8154811061214257612142612663565b90600052602060002001546001828154811061216057612160612663565b600091825260209091200155806121768161268f565b915050612111565b600180548061218f5761218f612815565b6001900381819060005260206000200160009055905550565b60606121b784846000856121bf565b949350505050565b6060824710156122205760405162461bcd60e51b815260206004820152602660248201527f416464726573733a20696e73756666696369656e742062616c616e636520666f6044820152651c8818d85b1b60d21b6064820152608401610625565b600080866001600160a01b0316858760405161223c919061282b565b60006040518083038185875af1925050503d8060008114612279576040519150601f19603f3d011682016040523d82523d6000602084013e61227e565b606091505b509150915061228f8783838761229a565b979650505050505050565b60608315612309578251600003612302576001600160a01b0385163b6123025760405162461bcd60e51b815260206004820152601d60248201527f416464726573733a2063616c6c20746f206e6f6e2d636f6e74726163740000006044820152606401610625565b50816121b7565b6121b7838381511561231e5781518083602001fd5b8060405162461bcd60e51b81526004016106259190612847565b60006020828403121561234a57600080fd5b5035919050565b80356001600160a01b0381168114611ca857600080fd5b60006020828403121561237a57600080fd5b6111e182612351565b600081518084526020808501945080840160005b838110156123bc5781516001600160a01b031687529582019590820190600101612397565b509495945050505050565b6080815260006123da6080830187612383565b82810360208401526123ec8187612383565b6001600160a01b0395909516604084015250506060015292915050565b6020808252825182820181905260009190848201906040850190845b8181101561244157835183529284019291840191600101612425565b50909695505050505050565b6000806040838503121561246057600080fd5b8235915061247060208401612351565b90509250929050565b60005b8381101561249457818101518382015260200161247c565b50506000910152565b600081518084526124b5816020860160208601612479565b601f01601f19169290920160200192915050565b85815284602082015260018060a01b0384166040820152821515606082015260a06080820152600061228f60a083018461249d565b600080600080600060a0868803121561251657600080fd5b8535945061252660208701612351565b93506040860135925061253b60608701612351565b949793965091946080013592915050565b60006020828403121561255e57600080fd5b5051919050565b602080825260149082015273494e53554646494349454e545f42414c414e434560601b604082015260600190565b6020808252600c908201526b15539055551213d49256915160a21b604082015260600190565b600181811c908216806125cd57607f821691505b6020821081036116fe57634e487b7160e01b600052602260045260246000fd5b60008083546125fb816125b9565b60018281168015612613576001811461262857612657565b60ff1984168752821515830287019450612657565b8760005260208060002060005b8581101561264e5781548a820152908401908201612635565b50505082870194505b50929695505050505050565b634e487b7160e01b600052603260045260246000fd5b634e487b7160e01b600052601160045260246000fd5b6000600182016126a1576126a1612679565b5060010190565b808201808211156111e4576111e4612679565b634e487b7160e01b600052604160045260246000fd5b601f821115610b8a57600081815260208120601f850160051c810160208610156126f85750805b601f850160051c820191505b8181101561271757828155600101612704565b505050505050565b67ffffffffffffffff831115612737576127376126bb565b61274b8361274583546125b9565b836126d1565b6000601f84116001811461277f57600085156127675750838201355b600019600387901b1c1916600186901b1783556127d9565b600083815260209020601f19861690835b828110156127b05786850135825560209485019460019092019101612790565b50868210156127cd5760001960f88860031b161c19848701351681555b505060018560011b0183555b5050505050565b6000602082840312156127f257600080fd5b815180151581146111e157600080fd5b818103818111156111e4576111e4612679565b634e487b7160e01b600052603160045260246000fd5b6000825161283d818460208701612479565b9190910192915050565b6020815260006111e1602083018461249d56fea2646970667358221220ae7db4771cd12d0f98793e8408861d8a461e7a5464093a7f10d35790cc25317764736f6c63430008140033ac33ff75c19e70fe83507db0d683fd3465c996598dc972688b7ace676c89077b",
  "linkReferences": {},
  "deployedLinkReferences": {}
}