{
  "_format": "hh-sol-artifact-1",
  "contractName": "ReceiptNFT",
  "sourceName": "contracts/ReceiptNFT.sol",
  "abi": [
    {
      "inputs": [],
      "stateMutability": "nonpayable",
      "type": "constructor"
    },
    {
      "anonymous": false,
      "inputs": [
        {
          "indexed": true,
          "internalType": "address",
          "name": "owner",
          "type": "address"
        },
        {
          "indexed": true,
          "internalType": "address",
          "name": "approved",
          "type": "address"
        },
        {
          "indexed": true,
          "internalType": "uint256",
          "name": "tokenId",
          "type": "uint256"
        }
      ],
      "name": "Approval",
      "type": "event"
    },
    {
      "anonymous": false,
      "inputs": [
        {
          "indexed": true,
          "internalType": "address",
          "name": "owner",
          "type": "address"
        },
        {
          "indexed": true,
          "internalType": "address",
          "name": "operator",
          "type": "address"
        },
        {
          "indexed": false,
          "internalType": "bool",
          "name": "approved",
          "type": "bool"
        }
      ],
      "name": "ApprovalForAll",
      "type": "event"
    },
    {
      "anonymous": false,
      "inputs": [
        {
          "indexed": true,
          "internalType": "address",
          "name": "minter",
          "type": "address"
        }
      ],
      "name": "MinterAdded",
      "type": "event"
    },
    {
      "anonymous": false,
      "inputs": [
        {
          "indexed": true,
          "internalType": "address",
          "name": "minter",
          "type": "address"
        }
      ],
      "name": "MinterRemoved",
      "type": "event"
    },
    {
      "anonymous": false,
      "inputs": [
        {
          "indexed": true,
          "internalType": "address",
          "name": "previousOwner",
          "type": "address"
        },
        {
          "indexed": true,
          "internalType": "address",
          "name": "newOwner",
          "type": "address"
        }
      ],
      "name": "OwnershipTransferred",
      "type": "event"
    },
    {
      "anonymous": false,
      "inputs": [
        {
          "indexed": true,
          "internalType": "uint256",
          "name": "tokenId",
          "type": "uint256"
        },
        {
          "indexed": true,
          "internalType": "address",
          "name": "invoiceContract",
          "type": "address"
        },
        {
          "indexed": true,
          "internalType": "uint256",
          "name": "invoiceId",
          "type": "uint256"
        },
        {
          "indexed": false,
          "internalType": "address",
          "name": "payer",
          "type": "address"
        }
      ],
      "name": "ReceiptMinted",
      "type": "event"
    },
    {
      "anonymous": false,
      "inputs": [
        {
          "indexed": true,
          "internalType": "address",
          "name": "from",
          "type": "address"
        },
        {
          "indexed": true,
          "internalType": "address",
          "name": "to",
          "type": "address"
        },
        {
          "indexed": true,
          "internalType": "uint256",
          "name": "tokenId",
          "type": "uint256"
        }
      ],
      "name": "Transfer",
      "type": "event"
    },
    {
      "inputs": [
        {
          "internalType": "address",
          "name": "minter",
          "type": "address"
        }
      ],
      "name": "addMinter",
      "outputs": [],
      "stateMutability": "nonpayable",
      "type": "function"
    },
    {
      "inputs": [
        {
          "internalType": "address",
          "name": "to",
          "type": "address"
        },
        {
          "internalType": "uint256",
          "name": "tokenId",
          "type": "uint256"
        }
      ],
      "name": "approve",
      "outputs": [],
      "stateMutability": "nonpayable",
      "type": "function"
    },
    {
      "inputs": [
        {
          "internalType": "address",
          "name": "owner",
          "type": "address"
        }
      ],
      "name": "balanceOf",
      "outputs": [
        {
          "internalType": "uint256",
          "name": "",
          "type": "uint256"
        }
      ],
      "stateMutability": "view",
      "type": "function"
    },
    {
      "inputs": [
        {
          "internalType": "uint256",
          "name": "tokenId",
          "type": "uint256"
        }
      ],
      "name": "getApproved",
      "outputs": [
        {
          "internalType": "address",
          "name": "",
          "type": "address"
        }
      ],
      "stateMutability": "view",
      "type": "function"
    },
    {
      "inputs": [
        {
          "internalType": "uint256",
          "name": "tokenId",
          "type": "uint256"
        }
      ],
      "name": "getReceipt",
      "outputs": [
        {
          "components": [
            {
              "internalType": "address",
              "name": "invoiceContract",
              "type": "address"
            },
            {
              "internalType": "uint256",
              "name": "invoiceId",
              "type": "uint256"
            },
            {
              "internalType": "address",
              "name": "payer",
              "type": "address"
            },
            {
              "internalType": "address",
              "name": "token",
              "type": "address"
            },
            {
              "internalType": "uint256",
              "name": "amount",
              "type": "uint256"
            },
            {
              "internalType": "uint256",
              "name": "paidAt",
              "type": "uint256"
            }
          ],
          "internalType": "struct ReceiptNFT.Receipt",
          "name": "",
          "type": "tuple"
        }
      ],
      "stateMutability": "view",
      "type": "function"
    },
    {
      "inputs": [
        {
          "internalType": "address",
          "name": "owner",
          "type": "address"
        },
        {
          "internalType": "address",
          "name": "operator",
          "type": "address"
        }
      ],
      "name": "isApprovedForAll",
      "outputs": [
        {
          "internalType": "bool",
          "name": "",
          "type": "bool"
        }
      ],
      "stateMutability": "view",
      "type": "function"
    },
    {
      "inputs": [
        {
          "internalType": "address",
          "name": "invoiceContract",
          "type": "address"
        },
        {
          "internalType": "uint256",
          "name": "invoiceId",
          "type": "uint256"
        },
        {
          "internalType": "address",
          "name": "payer",
          "type": "address"
        },
        {
          "internalType": "address",
          "name": "token",
          "type": "address"
        },
        {
          "internalType": "uint256",
          "name": "amount",
          "type": "uint256"
        }
      ],
      "name": "mintReceipt",
      "outputs": [
        {
          "internalType": "uint256",
          "name": "",
          "type": "uint256"
        }
      ],
      "stateMutability": "nonpayable",
      "type": "function"
    },
    {
      "inputs": [
        {
          "internalType": "address",
          "name": "",
          "type": "address"
        }
      ],
      "name": "minters",
      "outputs": [
        {
          "internalType": "bool",
          "name": "",
          "type": "bool"
        }
      ],
      "stateMutability": "view",
      "type": "function"
    },
    {
      "inputs": [],
      "name": "name",
      "outputs": [
        {
          "internalType": "string",
          "name": "",
          "type": "string"
        }
      ],
      "stateMutability": "view",
      "type": "function"
    },
    {
      "inputs": [],
      "name": "owner",
      "outputs": [
        {
          "internalType": "address",
          "name": "",
          "type": "address"
        }
      ],
      "stateMutability": "view",
      "type": "function"
    },
    {
      "inputs": [
        {
          "internalType": "uint256",
          "name": "tokenId",
          "type": "uint256"
        }
      ],
      "name": "ownerOf",
      "outputs": [
        {
          "internalType": "address",
          "name": "",
          "type": "address"
        }
      ],
      "stateMutability": "view",
      "type": "function"
    },
    {
      "inputs": [
        {
          "internalType": "address",
          "name": "minter",
          "type": "address"
        }
      ],
      "name": "removeMinter",
      "outputs": [],
      "stateMutability": "nonpayable",
      "type": "function"
    },
    {
      "inputs": [],
      "name": "renounceOwnership",
      "outputs": [],
      "stateMutability": "nonpayable",
      "type": "function"
    },
    {
      "inputs": [
        {
          "internalType": "address",
          "name": "from",
          "type": "address"
        },
        {
          "internalType": "address",
          "name": "to",
          "type": "address"
        },
        {
          "internalType": "uint256",
          "name": "tokenId",
          "type": "uint256"
        }
      ],
      "name": "safeTransferFrom",
      "outputs": [],
      "stateMutability": "nonpayable",
      "type": "function"
    },
    {
      "inputs": [
        {
          "internalType": "address",
          "name": "from",
          "type": "address"
        },
        {
          "internalType": "address",
          "name": "to",
          "type": "address"
        },
        {
          "internalType": "uint256",
          "name": "tokenId",
          "type": "uint256"
        },
        {
          "internalType": "bytes",
          "name": "data",
          "type": "bytes"
        }
      ],
      "name": "safeTransferFrom",
      "outputs": [],
      "stateMutability": "nonpayable",
      "type": "function"
    },
    {
      "inputs": [
        {
          "internalType": "address",
          "name": "operator",
          "type": "address"
        },
        {
          "internalType": "bool",
          "name": "approved",
          "type": "bool"
        }
      ],
      "name": "setApprovalForAll",
      "outputs": [],
      "stateMutability": "nonpayable",
      "type": "function"
    },
    {
      "inputs": [
        {
          "internalType": "bytes4",
          "name": "interfaceId",
          "type": "bytes4"
        }
      ],
      "name": "supportsInterface",
      "outputs": [
        {
          "internalType": "bool",
          "name": "",
          "type": "bool"
        }
      ],
      "stateMutability": "view",
      "type": "function"
    },
    {
      "inputs": [],
      "name": "symbol",
      "outputs": [
        {
          "internalType": "string",
          "name": "",
          "type": "string"
        }
      ],
      "stateMutability": "view",
      "type": "function"
    },
    {
      "inputs": [
        {
          "internalType": "uint256",
          "name": "tokenId",
          "type": "uint256"
        }
      ],
      "name": "tokenURI",
      "outputs": [
        {
          "internalType": "string",
          "name": "",
          "type": "string"
        }
      ],
      "stateMutability": "view",
      "type": "function"
    },
    {
      "inputs": [
        {
          "internalType": "address",
          "name": "from",
          "type": "address"
        },
        {
          "internalType": "address",
          "name": "to",
          "type": "address"
        },
        {
          "internalType": "uint256",
          "name": "tokenId",
          "type": "uint256"
        }
      ],
      "name": "transferFrom",
      "outputs": [],
      "stateMutability": "nonpayable",
      "type": "function"
    },
    {
      "inputs": [
        {
          "internalType": "address",
          "name": "newOwner",
          "type": "address"
        }
      ],
      "name": "transferOwnership",
      "outputs": [],
      "stateMutability": "nonpayable",
      "type": "function"
    }
  ],
  "bytecode": "0x608060405260016009553480156200001657600080fd5b506040518060400160405280600a815260200169149958d95a5c1d13919560b21b815250604051806040016040528060048152602001631490d41560e21b815250816000908162000068919062000195565b50600162000077828262000195565b505050620000946200008e6200009a60201b60201c565b6200009e565b62000261565b3390565b600680546001600160a01b038381166001600160a01b0319831681179093556040519116919082907f8be0079c531659141344cd1fd0a4f28419497f9722a3daafe3b4186f6b6457e090600090a35050565b634e487b7160e01b600052604160045260246000fd5b600181811c908216806200011b57607f821691505b6020821081036200013c57634e487b7160e01b600052602260045260246000fd5b50919050565b601f8211156200019057600081815260208120601f850160051c810160208610156200016b5750805b601f850160051c820191505b818110156200018c5782815560010162000177565b5050505b505050565b81516001600160401b03811115620001b157620001b1620000f0565b620001c981620001c2845462000106565b8462000142565b602080601f831160018114620002015760008415620001e85750858301515b600019600386901b1c1916600185901b1785556200018c565b600085815260208120601f198616915b82811015620002325788860151825594840194600190910190840162000211565b5085821015620002515787850151600019600388901b60f8161c191681555b5050505050600190811b01905550565b611fe480620002716000396000f3fe608060405234801561001057600080fd5b50600436106101375760003560e01c80638da5cb5b116100b8578063b63e6ac31161007c578063b63e6ac314610280578063b88d4fde146102ea578063c87b56dd146102fd578063e985e9c514610310578063f2fde38b14610323578063f46eccc41461033657600080fd5b80638da5cb5b1461022e57806395d89b411461023f578063983b2d5614610247578063a22cb4651461025a578063a90c49f91461026d57600080fd5b80633092afd5116100ff5780633092afd5146101cc57806342842e0e146101df5780636352211e146101f257806370a0823114610205578063715018a61461022657600080fd5b806301ffc9a71461013c57806306fdde0314610164578063081812fc14610179578063095ea7b3146101a457806323b872dd146101b9575b600080fd5b61014f61014a366004611807565b610359565b60405190151581526020015b60405180910390f35b61016c6103ab565b60405161015b9190611874565b61018c610187366004611887565b61043d565b6040516001600160a01b03909116815260200161015b565b6101b76101b23660046118bc565b610464565b005b6101b76101c73660046118e6565b61057e565b6101b76101da366004611922565b6105af565b6101b76101ed3660046118e6565b610600565b61018c610200366004611887565b61061b565b610218610213366004611922565b61067b565b60405190815260200161015b565b6101b7610701565b6006546001600160a01b031661018c565b61016c610715565b6101b7610255366004611922565b610724565b6101b761026836600461193d565b6107bf565b61021861027b366004611979565b6107ce565b61029361028e366004611887565b61096f565b60405161015b919081516001600160a01b03908116825260208084015190830152604080840151821690830152606080840151909116908201526080808301519082015260a0918201519181019190915260c00190565b6101b76102f83660046119e4565b610a5d565b61016c61030b366004611887565b610a95565b61014f61031e366004611ac0565b610c08565b6101b7610331366004611922565b610c36565b61014f610344366004611922565b60086020526000908152604090205460ff1681565b60006001600160e01b031982166380ac58cd60e01b148061038a57506001600160e01b03198216635b5e139f60e01b145b806103a557506301ffc9a760e01b6001600160e01b03198316145b92915050565b6060600080546103ba90611af3565b80601f01602080910402602001604051908101604052809291908181526020018280546103e690611af3565b80156104335780601f1061040857610100808354040283529160200191610433565b820191906000526020600020905b81548152906001019060200180831161041657829003601f168201915b5050505050905090565b600061044882610caf565b506000908152600460205260409020546001600160a01b031690565b600061046f8261061b565b9050806001600160a01b0316836001600160a01b0316036104e15760405162461bcd60e51b815260206004820152602160248201527f4552433732313a20617070726f76616c20746f2063757272656e74206f776e656044820152603960f91b60648201526084015b60405180910390fd5b336001600160a01b03821614806104fd57506104fd8133610c08565b61056f5760405162461bcd60e51b815260206004820152603d60248201527f4552433732313a20617070726f76652063616c6c6572206973206e6f7420746f60448201527f6b656e206f776e6572206f7220617070726f76656420666f7220616c6c00000060648201526084016104d8565b6105798383610d0e565b505050565b6105883382610d7c565b6105a45760405162461bcd60e51b81526004016104d890611b2d565b610579838383610ddb565b6105b7610f4c565b6001600160a01b038116600081815260086020526040808220805460ff19169055517fe94479a9f7e1952cc78f2d6baab678adc1b772d936c6583def489e524cb666929190a250565b61057983838360405180602001604052806000815250610a5d565b6000818152600260205260408120546001600160a01b0316806103a55760405162461bcd60e51b8152602060048201526018602482015277115490cdcc8c4e881a5b9d985b1a59081d1bdad95b88125160421b60448201526064016104d8565b60006001600160a01b0382166106e55760405162461bcd60e51b815260206004820152602960248201527f4552433732313a2061646472657373207a65726f206973206e6f7420612076616044820152683634b21037bbb732b960b91b60648201526084016104d8565b506001600160a01b031660009081526003602052604090205490565b610709610f4c565b6107136000610fa6565b565b6060600180546103ba90611af3565b61072c610f4c565b6001600160a01b0381166107735760405162461bcd60e51b815260206004820152600e60248201526d24a72b20a624a22fa6a4a72a22a960911b60448201526064016104d8565b6001600160a01b038116600081815260086020526040808220805460ff19166001179055517f6ae172837ea30b801fbfcdd4108aa1d5bf8ff775444fd70256b44e6bf3dfc3f69190a250565b6107ca338383610ff8565b5050565b3360009081526008602052604081205460ff1661081a5760405162461bcd60e51b815260206004820152600a6024820152692727aa2fa6a4a72a22a960b11b60448201526064016104d8565b6001600160a01b0384166108605760405162461bcd60e51b815260206004820152600d60248201526c24a72b20a624a22fa820aca2a960991b60448201526064016104d8565b600980546000918261087183611b90565b909155506040805160c0810182526001600160a01b03808b16825260208083018b81528a83168486019081528a841660608601908152608086018b81524260a0880190815260008a8152600790965297909420955186549086166001600160a01b031991821617875592516001870155905160028601805491861691841691909117905551600385018054919094169116179091555160048201559051600590910155905061092085826110c6565b6040516001600160a01b03868116825287919089169083907fcb133e83919b8bbacb3ab1cb2e9e2744efbd95937f70b5b661ea186688ef1b359060200160405180910390a49695505050505050565b6040805160c08101825260008082526020808301829052828401829052606083018290526080830182905260a083018290528482526002905291909120546001600160a01b03166109f65760405162461bcd60e51b81526020600482015260116024820152702727a722ac24a9aa22a72a2faa27a5a2a760791b60448201526064016104d8565b50600090815260076020908152604091829020825160c08101845281546001600160a01b039081168252600183015493820193909352600282015483169381019390935260038101549091166060830152600481015460808301526005015460a082015290565b610a673383610d7c565b610a835760405162461bcd60e51b81526004016104d890611b2d565b610a8f848484846110e0565b50505050565b6000818152600260205260409020546060906001600160a01b0316610af05760405162461bcd60e51b81526020600482015260116024820152702727a722ac24a9aa22a72a2faa27a5a2a760791b60448201526064016104d8565b6000828152600760209081526040808320815160c08101835281546001600160a01b0390811682526001830154948201949094526002820154841692810192909252600381015490921660608201526004820154608082015260059091015460a082015290610b5e84611113565b610b6b8360200151611113565b610b788460200151611113565b8451610b83906111a6565b610b9086604001516111a6565b610b9d87606001516111a6565b610baa8860800151611113565b610bb78960a00151611113565b604051602001610bce989796959493929190611bc5565b604051602081830303815290604052905080604051602001610bf09190611e15565b60405160208183030381529060405292505050919050565b6001600160a01b03918216600090815260056020908152604080832093909416825291909152205460ff1690565b610c3e610f4c565b6001600160a01b038116610ca35760405162461bcd60e51b815260206004820152602660248201527f4f776e61626c653a206e6577206f776e657220697320746865207a65726f206160448201526564647265737360d01b60648201526084016104d8565b610cac81610fa6565b50565b6000818152600260205260409020546001600160a01b0316610cac5760405162461bcd60e51b8152602060048201526018602482015277115490cdcc8c4e881a5b9d985b1a59081d1bdad95b88125160421b60448201526064016104d8565b600081815260046020526040902080546001600160a01b0319166001600160a01b0384169081179091558190610d438261061b565b6001600160a01b03167f8c5be1e5ebec7d5bd14f71427d1e84f3dd0314c0f7b2291e5b200ac8c7c3b92560405160405180910390a45050565b600080610d888361061b565b9050806001600160a01b0316846001600160a01b03161480610daf5750610daf8185610c08565b80610dd35750836001600160a01b0316610dc88461043d565b6001600160a01b0316145b949350505050565b826001600160a01b0316610dee8261061b565b6001600160a01b031614610e145760405162461bcd60e51b81526004016104d890611e53565b6001600160a01b038216610e765760405162461bcd60e51b8152602060048201526024808201527f4552433732313a207472616e7366657220746f20746865207a65726f206164646044820152637265737360e01b60648201526084016104d8565b610e8383838360016111bc565b826001600160a01b0316610e968261061b565b6001600160a01b031614610ebc5760405162461bcd60e51b81526004016104d890611e53565b600081815260046020908152604080832080546001600160a01b03199081169091556001600160a01b0387811680865260038552838620805460001901905590871680865283862080546001019055868652600290945282852080549092168417909155905184937fddf252ad1be2c89b69c2b068fc378daa952ba7f163c4a11628f55a4df523b3ef91a4505050565b6006546001600160a01b031633146107135760405162461bcd60e51b815260206004820181905260248201527f4f776e61626c653a2063616c6c6572206973206e6f7420746865206f776e657260448201526064016104d8565b600680546001600160a01b038381166001600160a01b0319831681179093556040519116919082907f8be0079c531659141344cd1fd0a4f28419497f9722a3daafe3b4186f6b6457e090600090a35050565b816001600160a01b0316836001600160a01b0316036110595760405162461bcd60e51b815260206004820152601960248201527f4552433732313a20617070726f766520746f2063616c6c65720000000000000060448201526064016104d8565b6001600160a01b03838116600081815260056020908152604080832094871680845294825291829020805460ff191686151590811790915591519182527f17307eab39ab6107e8899845ad3d59bd9653f200f220920489ca2b5937696c31910160405180910390a3505050565b6107ca828260405180602001604052806000815250611221565b6110eb848484610ddb565b6110f784848484611254565b610a8f5760405162461bcd60e51b81526004016104d890611e98565b6060600061112083611355565b600101905060008167ffffffffffffffff811115611140576111406119ce565b6040519080825280601f01601f19166020018201604052801561116a576020820181803683370190505b5090508181016020015b600019016f181899199a1a9b1b9c1cb0b131b232b360811b600a86061a8153600a850494508461117457509392505050565b60606103a5826001600160a01b0316601461142d565b6001600160a01b038416158015906111dc57506001600160a01b03831615155b156112155760405162461bcd60e51b815260206004820152600960248201526814d3d5531093d5539160ba1b60448201526064016104d8565b610a8f848484846115d0565b61122b8383611658565b6112386000848484611254565b6105795760405162461bcd60e51b81526004016104d890611e98565b60006001600160a01b0384163b1561134a57604051630a85bd0160e11b81526001600160a01b0385169063150b7a0290611298903390899088908890600401611eea565b6020604051808303816000875af19250505080156112d3575060408051601f3d908101601f191682019092526112d091810190611f27565b60015b611330573d808015611301576040519150601f19603f3d011682016040523d82523d6000602084013e611306565b606091505b5080516000036113285760405162461bcd60e51b81526004016104d890611e98565b805181602001fd5b6001600160e01b031916630a85bd0160e11b149050610dd3565b506001949350505050565b60008072184f03e93ff9f4daa797ed6e38ed64bf6a1f0160401b83106113945772184f03e93ff9f4daa797ed6e38ed64bf6a1f0160401b830492506040015b6d04ee2d6d415b85acef810000000083106113c0576d04ee2d6d415b85acef8100000000830492506020015b662386f26fc1000083106113de57662386f26fc10000830492506010015b6305f5e10083106113f6576305f5e100830492506008015b612710831061140a57612710830492506004015b6064831061141c576064830492506002015b600a83106103a55760010192915050565b6060600061143c836002611f44565b611447906002611f5b565b67ffffffffffffffff81111561145f5761145f6119ce565b6040519080825280601f01601f191660200182016040528015611489576020820181803683370190505b509050600360fc1b816000815181106114a4576114a4611f6e565b60200101906001600160f81b031916908160001a905350600f60fb1b816001815181106114d3576114d3611f6e565b60200101906001600160f81b031916908160001a90535060006114f7846002611f44565b611502906001611f5b565b90505b600181111561157a576f181899199a1a9b1b9c1cb0b131b232b360811b85600f166010811061153657611536611f6e565b1a60f81b82828151811061154c5761154c611f6e565b60200101906001600160f81b031916908160001a90535060049490941c9361157381611f84565b9050611505565b5083156115c95760405162461bcd60e51b815260206004820181905260248201527f537472696e67733a20686578206c656e67746820696e73756666696369656e7460448201526064016104d8565b9392505050565b6001811115610a8f576001600160a01b03841615611616576001600160a01b03841660009081526003602052604081208054839290611610908490611f9b565b90915550505b6001600160a01b03831615610a8f576001600160a01b0383166000908152600360205260408120805483929061164d908490611f5b565b909155505050505050565b6001600160a01b0382166116ae5760405162461bcd60e51b815260206004820181905260248201527f4552433732313a206d696e7420746f20746865207a65726f206164647265737360448201526064016104d8565b6000818152600260205260409020546001600160a01b0316156117135760405162461bcd60e51b815260206004820152601c60248201527f4552433732313a20746f6b656e20616c7265616479206d696e7465640000000060448201526064016104d8565b6117216000838360016111bc565b6000818152600260205260409020546001600160a01b0316156117865760405162461bcd60e51b815260206004820152601c60248201527f4552433732313a20746f6b656e20616c7265616479206d696e7465640000000060448201526064016104d8565b6001600160a01b038216600081815260036020908152604080832080546001019055848352600290915280822080546001600160a01b0319168417905551839291907fddf252ad1be2c89b69c2b068fc378daa952ba7f163c4a11628f55a4df523b3ef908290a45050565b6001600160e01b031981168114610cac57600080fd5b60006020828403121561181957600080fd5b81356115c9816117f1565b60005b8381101561183f578181015183820152602001611827565b50506000910152565b60008151808452611860816020860160208601611824565b601f01601f19169290920160200192915050565b6020815260006115c96020830184611848565b60006020828403121561189957600080fd5b5035919050565b80356001600160a01b03811681146118b757600080fd5b919050565b600080604083850312156118cf57600080fd5b6118d8836118a0565b946020939093013593505050565b6000806000606084860312156118fb57600080fd5b611904846118a0565b9250611912602085016118a0565b9150604084013590509250925092565b60006020828403121561193457600080fd5b6115c9826118a0565b6000806040838503121561195057600080fd5b611959836118a0565b91506020830135801515811461196e57600080fd5b809150509250929050565b600080600080600060a0868803121561199157600080fd5b61199a866118a0565b9450602086013593506119af604087016118a0565b92506119bd606087016118a0565b949793965091946080013592915050565b634e487b7160e01b600052604160045260246000fd5b600080600080608085870312156119fa57600080fd5b611a03856118a0565b9350611a11602086016118a0565b925060408501359150606085013567ffffffffffffffff80821115611a3557600080fd5b818701915087601f830112611a4957600080fd5b813581811115611a5b57611a5b6119ce565b604051601f8201601f19908116603f01168101908382118183101715611a8357611a836119ce565b816040528281528a6020848701011115611a9c57600080fd5b82602086016020830137600060208483010152809550505050505092959194509250565b60008060408385031215611ad357600080fd5b611adc836118a0565b9150611aea602084016118a0565b90509250929050565b600181811c90821680611b0757607f821691505b602082108103611b2757634e487b7160e01b600052602260045260246000fd5b50919050565b6020808252602d908201527f4552433732313a2063616c6c6572206973206e6f7420746f6b656e206f776e6560408201526c1c881bdc88185c1c1c9bdd9959609a1b606082015260800190565b634e487b7160e01b600052601160045260246000fd5b600060018201611ba257611ba2611b7a565b5060010190565b60008151611bbb818560208601611824565b9290920192915050565b717b226e616d65223a2252656365697074202360701b81526000611bec601283018b611ba9565b61088b60f21b81527f226465736372697074696f6e223a224f6e2d636861696e20726563656970742060028201526b03337b91034b73b37b4b1b2960a51b6022820152611c3c602e82018b611ba9565b61088b60f21b815290506d2261747472696275746573223a5b60901b60028201527f7b2274726169745f74797065223a22496e766f696365204944222c2276616c7560108201526332911d1160e11b6030820152611c9d603482018a611ba9565b62089f4b60ea1b815290507f7b2274726169745f74797065223a22496e766f69636520436f6e74726163742260038201526916113b30b63ab2911d1160b11b6023820152611cee602d820189611ba9565b62089f4b60ea1b815290507f7b2274726169745f74797065223a225061796572222c2276616c7565223a22006003820152611d2c6022820188611ba9565b62089f4b60ea1b815290507f7b2274726169745f74797065223a22546f6b656e222c2276616c7565223a22006003820152611d6a6022820187611ba9565b62089f4b60ea1b815290507f7b2274726169745f74797065223a22416d6f756e74222c2276616c7565223a226003820152611da86023820186611ba9565b62089f4b60ea1b815290507f7b2274726169745f74797065223a2250616964204174222c2276616c7565223a6003820152601160f91b6023820152611df06024820185611ba9565b61227d60f01b8152615d7d60f01b60028201526004019b9a5050505050505050505050565b7519185d184e985c1c1b1a58d85d1a5bdb8bda9cdbdb8b60521b815260008251611e46816016850160208701611824565b9190910160160192915050565b60208082526025908201527f4552433732313a207472616e736665722066726f6d20696e636f72726563742060408201526437bbb732b960d91b606082015260800190565b60208082526032908201527f4552433732313a207472616e7366657220746f206e6f6e20455243373231526560408201527131b2b4bb32b91034b6b83632b6b2b73a32b960711b606082015260800190565b6001600160a01b0385811682528416602082015260408101839052608060608201819052600090611f1d90830184611848565b9695505050505050565b600060208284031215611f3957600080fd5b81516115c9816117f1565b80820281158282048414176103a5576103a5611b7a565b808201808211156103a5576103a5611b7a565b634e487b7160e01b600052603260045260246000fd5b600081611f9357611f93611b7a565b506000190190565b818103818111156103a5576103a5611b7a56fea26469706673582212203d21c249636b2ffa54a17ae123ea4b3e8e4abbe5075c62e3a2f7cc0de132525364736f6c63430008140033",
  "linkReferences": {},
  "deployedLinkReferences": {}
}