{
  "_format": "hh-sol-artifact-1",
  "contractName": "TakaCoin",
  "sourceName": "contracts/TakaCoin.sol",
  "abi": [
    {
      "inputs": [],
      "stateMutability": "nonpayable",
      "type": "constructor"
    },
    {
      "anonymous": false,
      "inputs": [
        {
          "indexed": true,
          "internalType": "address",
          "name": "owner",
          "type": "address"
        },
        {
          "indexed": true,
          "internalType": "address",
          "name": "spender",
          "type": "address"
        },
        {
          "indexed": false,
          "internalType": "uint256",
          "name": "value",
          "type": "uint256"
        }
      ],
      "name": "Approval",
      "type": "event"
    },
    {
      "anonymous": false,
      "inputs": [
        {
          "indexed": true,
          "internalType": "address",
          "name": "previousOwner",
          "type": "address"
        },
        {
          "indexed": true,
          "internalType": "address",
          "name": "newOwner",
          "type": "address"
        }
      ],
      "name": "OwnershipTransferred",
      "type": "event"
    },
    {
      "anonymous": false,
      "inputs": [
        {
          "indexed": true,
          "internalType": "address",
          "name": "from",
          "type": "address"
        },
        {
          "indexed": true,
          "internalType": "address",
          "name": "to",
          "type": "address"
        },
        {
          "indexed": false,
          "internalType": "uint256",
          "name": "value",
          "type": "uint256"
        }
      ],
      "name": "Transfer",
      "type": "event"
    },
    {
      "inputs": [
        {
          "internalType": "address",
          "name": "owner",
          "type": "address"
        },
        {
          "internalType": "address",
          "name": "spender",
          "type": "address"
        }
      ],
      "name": "allowance",
      "outputs": [
        {
          "internalType": "uint256",
          "name": "",
          "type": "uint256"
        }
      ],
      "stateMutability": "view",
      "type": "function"
    },
    {
      "inputs": [
        {
          "internalType": "address",
          "name": "spender",
          "type": "address"
        },
        {
          "internalType": "uint256",
          "name": "amount",
          "type": "uint256"
        }
      ],
      "name": "approve",
      "outputs": [
        {
          "internalType": "bool",
          "name": "",
          "type": "bool"
        }
      ],
      "stateMutability": "nonpayable",
      "type": "function"
    },
    {
      "inputs": [
        {
          "internalType": "address",
          "name": "account",
          "type": "address"
        }
      ],
      "name": "balanceOf",
      "outputs": [
        {
          "internalType": "uint256",
          "name": "",
          "type": "uint256"
        }
      ],
      "stateMutability": "view",
      "type": "function"
    },
    {
      "inputs": [],
      "name": "decimals",
      "outputs": [
        {
          "internalType": "uint8",
          "name": "",
          "type": "uint8"
        }
      ],
      "stateMutability": "pure",
      "type": "function"
    },
    {
      "inputs": [],
      "name": "name",
      "outputs": [
        {
          "internalType": "string",
          "name": "",
          "type": "string"
        }
      ],
      "stateMutability": "view",
      "type": "function"
    },
    {
      "inputs": [],
      "name": "owner",
      "outputs": [
        {
          "internalType": "address",
          "name": "",
          "type": "address"
        }
      ],
      "stateMutability": "view",
      "type": "function"
    },
    {
      "inputs": [
        {
          "internalType": "address",
          "name": "to",
          "type": "address"
        },
        {
          "internalType": "uint256",
          "name": "amount",
          "type": "uint256"
        }
      ],
      "name": "showMeTheMoney",
      "outputs": [],
      "stateMutability": "nonpayable",
      "type": "function"
    },
    {
      "inputs": [],
      "name": "symbol",
      "outputs": [
        {
          "internalType": "string",
          "name": "",
          "type": "string"
        }
      ],
      "stateMutability": "view",
      "type": "function"
    },
    {
      "inputs": [],
      "name": "totalSupply",
      "outputs": [
        {
          "internalType": "uint256",
          "name": "",
          "type": "uint256"
        }
      ],
      "stateMutability": "view",
      "type": "function"
    },
    {
      "inputs": [
        {
          "internalType": "address",
          "name": "to",
          "type": "address"
        },
        {
          "internalType": "uint256",
          "name": "amount",
          "type": "uint256"
        }
      ],
      "name": "transfer",
      "outputs": [
        {
          "internalType": "bool",
          "name": "",
          "type": "bool"
        }
      ],
      "stateMutability": "nonpayable",
      "type": "function"
    },
    {
      "inputs": [
        {
          "internalType": "address",
          "name": "from",
          "type": "address"
        },
        {
          "internalType": "address",
          "name": "to",
          "type": "address"
        },
        {
          "internalType": "uint256",
          "name": "amount",
          "type": "uint256"
        }
      ],
      "name": "transferFrom",
      "outputs": [
        {
          "internalType": "bool",
          "name": "",
          "type": "bool"
        }
      ],
      "stateMutability": "nonpayable",
      "type": "function"
    },
    {
      "inputs": [
        {
          "internalType": "address",
          "name": "newOwner",
          "type": "address"
        }
      ],
      "name": "transferOwnership",
      "outputs": [],
      "stateMutability": "nonpayable",
      "type": "function"
    }
  ],
  "bytecode": "0x608060405234801561001057600080fd5b5033604051806040016040528060088152602001672a30b5b0a1b7b4b760c11b81525060405180604001604052806003815260200162544b4360e81b815250816000908161005e91906101b6565b50600161006b82826101b6565b5050506001600160a01b0381166100c85760405162461bcd60e51b815260206004820152601460248201527f4f776e65722063616e6e6f74206265207a65726f000000000000000000000000604482015260640160405180910390fd5b600580546001600160a01b0319166001600160a01b0383169081179091556040516000907f8be0079c531659141344cd1fd0a4f28419497f9722a3daafe3b4186f6b6457e0908290a350610275565b634e487b7160e01b600052604160045260246000fd5b600181811c9082168061014157607f821691505b60208210810361016157634e487b7160e01b600052602260045260246000fd5b50919050565b601f8211156101b157600081815260208120601f850160051c8101602086101561018e5750805b601f850160051c820191505b818110156101ad5782815560010161019a565b5050505b505050565b81516001600160401b038111156101cf576101cf610117565b6101e3816101dd845461012d565b84610167565b602080601f83116001811461021857600084156102005750858301515b600019600386901b1c1916600185901b1785556101ad565b600085815260208120601f198616915b8281101561024757888601518255948401946001909101908401610228565b50858210156102655787850151600019600388901b60f8161c191681555b5050505050600190811b01905550565b610918806102846000396000f3fe608060405234801561001057600080fd5b50600436106100b45760003560e01c80638da5cb5b116100715780638da5cb5b1461015757806395d89b411461017257806397c5ed1e1461017a578063a9059cbb1461018f578063dd62ed3e146101a2578063f2fde38b146101db57600080fd5b806306fdde03146100b9578063095ea7b3146100d757806318160ddd146100fa57806323b872dd1461010c578063313ce5671461011f57806370a082311461012e575b600080fd5b6100c16101ee565b6040516100ce9190610762565b60405180910390f35b6100ea6100e53660046107cc565b610280565b60405190151581526020016100ce565b6002545b6040519081526020016100ce565b6100ea61011a3660046107f6565b610297565b604051601281526020016100ce565b6100fe61013c366004610832565b6001600160a01b031660009081526003602052604090205490565b6005546040516001600160a01b0390911681526020016100ce565b6100c1610386565b61018d6101883660046107cc565b610395565b005b6100ea61019d3660046107cc565b6103a3565b6100fe6101b0366004610854565b6001600160a01b03918216600090815260046020908152604080832093909416825291909152205490565b61018d6101e9366004610832565b6103b0565b6060600080546101fd90610887565b80601f016020809104026020016040519081016040528092919081815260200182805461022990610887565b80156102765780601f1061024b57610100808354040283529160200191610276565b820191906000526020600020905b81548152906001019060200180831161025957829003601f168201915b5050505050905090565b600061028d3384846104bc565b5060015b92915050565b6001600160a01b0383166000908152600460209081526040808320338452909152812054828110156103105760405162461bcd60e51b815260206004820152601d60248201527f45524332303a20696e73756666696369656e7420616c6c6f77616e636500000060448201526064015b60405180910390fd5b61031b85858561056d565b6001600160a01b038516600081815260046020908152604080832033808552908352928190208786039081905590519081529192917f8c5be1e5ebec7d5bd14f71427d1e84f3dd0314c0f7b2291e5b200ac8c7c3b925910160405180910390a3506001949350505050565b6060600180546101fd90610887565b61039f828261068d565b5050565b600061028d33848461056d565b6005546001600160a01b0316331461040a5760405162461bcd60e51b815260206004820181905260248201527f4f776e61626c653a2063616c6c6572206973206e6f7420746865206f776e65726044820152606401610307565b6001600160a01b0381166104605760405162461bcd60e51b815260206004820152601960248201527f4e6577206f776e6572206973207a65726f2061646472657373000000000000006044820152606401610307565b6005546040516001600160a01b038084169216907f8be0079c531659141344cd1fd0a4f28419497f9722a3daafe3b4186f6b6457e090600090a3600580546001600160a01b0319166001600160a01b0392909216919091179055565b6001600160a01b03821661050b5760405162461bcd60e51b815260206004820152601660248201527545524332303a20617070726f766520746f207a65726f60501b6044820152606401610307565b6001600160a01b0383811660008181526004602090815260408083209487168084529482529182902085905590518481527f8c5be1e5ebec7d5bd14f71427d1e84f3dd0314c0f7b2291e5b200ac8c7c3b92591015b60405180910390a3505050565b6001600160a01b0382166105c35760405162461bcd60e51b815260206004820152601760248201527f45524332303a207472616e7366657220746f207a65726f0000000000000000006044820152606401610307565b6001600160a01b03831660009081526003602052604090205481111561062b5760405162461bcd60e51b815260206004820152601b60248201527f45524332303a20696e73756666696369656e742062616c616e636500000000006044820152606401610307565b6001600160a01b03808416600081815260036020526040808220805486900390559285168082529083902080548501905591517fddf252ad1be2c89b69c2b068fc378daa952ba7f163c4a11628f55a4df523b3ef906105609085815260200190565b6001600160a01b0382166106d95760405162461bcd60e51b815260206004820152601360248201527245524332303a206d696e7420746f207a65726f60681b6044820152606401610307565b80600260008282546106eb91906108c1565b90915550506001600160a01b038216600090815260036020526040812080548392906107189084906108c1565b90915550506040518181526001600160a01b038316906000907fddf252ad1be2c89b69c2b068fc378daa952ba7f163c4a11628f55a4df523b3ef9060200160405180910390a35050565b600060208083528351808285015260005b8181101561078f57858101830151858201604001528201610773565b506000604082860101526040601f19601f8301168501019250505092915050565b80356001600160a01b03811681146107c757600080fd5b919050565b600080604083850312156107df57600080fd5b6107e8836107b0565b946020939093013593505050565b60008060006060848603121561080b57600080fd5b610814846107b0565b9250610822602085016107b0565b9150604084013590509250925092565b60006020828403121561084457600080fd5b61084d826107b0565b9392505050565b6000806040838503121561086757600080fd5b610870836107b0565b915061087e602084016107b0565b90509250929050565b600181811c9082168061089b57607f821691505b6020821081036108bb57634e487b7160e01b600052602260045260246000fd5b50919050565b8082018082111561029157634e487b7160e01b600052601160045260246000fdfea2646970667358221220b2478c62af520dd76197530e99846421e0de915c7b7fdcb63d19fc14d039a0db64736f6c63430008140033",
  "linkReferences": {},
  "deployedLinkReferences": {}
}