{
  "_format": "hh-sol-artifact-1",
  "contractName": "InvoiceFlowContract",
  "sourceName": "contracts/InvoiceFlowContract.sol",
  "abi": [
    {
      "inputs": [
        {
          "internalType": "address[]",
          "name": "_owners",
          "type": "address[]"
        },
        {
          "internalType": "address",
          "name": "_withdrawAddress",
          "type": "address"
        },
        {
          "internalType": "address[]",
          "name": "_acceptedTokens",
          "type": "address[]"
        },
        {
          "internalType": "uint8",
          "name": "_requiredOwnersApprovals",
          "type": "uint8"
        }
      ],
      "stateMutability": "nonpayable",
      "type": "constructor"
    },
    {
      "anonymous": false,
      "inputs": [
        {
          "indexed": false,
          "internalType": "uint256",
          "name": "_id",
          "type": "uint256"
        },
        {
          "indexed": true,
          "internalType": "address",
          "name": "_customer",
          "type": "address"
        },
        {
          "indexed": false,
          "internalType": "uint256",
          "name": "_amount",
          "type": "uint256"
        },
        {
          "indexed": true,
          "internalType": "address",
          "name": "_token",
          "type": "address"
        },
        {
          "indexed": false,
          "internalType": "uint256",
          "name": "_expiration",
          "type": "uint256"
        },
        {
          "indexed": false,
          "internalType": "address",
          "name": "_invoiceContract",
          "type": "address"
        },
        {
          "indexed": false,
          "internalType": "uint256",
          "name": "_receiptTokenId",
          "type": "uint256"
        }
      ],
      "name": "InvoicePaid",
      "type": "event"
    },
    {
      "anonymous": false,
      "inputs": [
        {
          "indexed": false,
          "internalType": "uint256",
          "name": "_id",
          "type": "uint256"
        },
        {
          "indexed": false,
          "internalType": "address",
          "name": "_customer",
          "type": "address"
        },
        {
          "indexed": false,
          "internalType": "uint256",
          "name": "_amount",
          "type": "uint256"
        },
        {
          "indexed": false,
          "internalType": "address",
          "name": "_token",
          "type": "address"
        },
        {
          "indexed": false,
          "internalType": "uint256",
          "name": "_expiration",
          "type": "uint256"
        }
      ],
      "name": "InvoiceRegistered",
      "type": "event"
    },
    {
      "anonymous": false,
      "inputs": [
        {
          "indexed": false,
          "internalType": "uint256",
          "name": "_id",
          "type": "uint256"
        },
        {
          "indexed": false,
          "internalType": "address",
          "name": "_customer",
          "type": "address"
        },
        {
          "indexed": false,
          "internalType": "uint256",
          "name": "_amount",
          "type": "uint256"
        },
        {
          "indexed": false,
          "internalType": "address",
          "name": "_token",
          "type": "address"
        },
        {
          "indexed": false,
          "internalType": "uint256",
          "name": "_expiration",
          "type": "uint256"
        }
      ],
      "name": "InvoiceRemoved",
      "type": "event"
    },
    {
      "anonymous": false,
      "inputs": [
        {
          "indexed": false,
          "internalType": "address",
          "name": "_newAddress",
          "type": "address"
        },
        {
          "indexed": false,
          "internalType": "address",
          "name": "_submitter",
          "type": "address"
        }
      ],
      "name": "WithdrawAddressChangeApproved",
      "type": "event"
    },
    {
      "anonymous": false,
      "inputs": [
        {
          "indexed": false,
          "internalType": "address",
          "name": "_newAddress",
          "type": "address"
        },
        {
          "indexed": false,
          "internalType": "address",
          "name": "_submitter",
          "type": "address"
        }
      ],
      "name": "WithdrawAddressChangeRequested",
      "type": "event"
    },
    {
      "anonymous": false,
      "inputs": [
        {
          "indexed": false,
          "internalType": "address",
          "name": "_oldAddress",
          "type": "address"
        },
        {
          "indexed": false,
          "internalType": "address",
          "name": "_newAddress",
          "type": "address"
        }
      ],
      "name": "WithdrawAddressChanged",
      "type": "event"
    },
    {
      "anonymous": false,
      "inputs": [
        {
          "indexed": false,
          "internalType": "uint256",
          "name": "_id",
          "type": "uint256"
        },
        {
          "indexed": false,
          "internalType": "address",
          "name": "_approver",
          "type": "address"
        },
        {
          "indexed": false,
          "internalType": "uint256",
          "name": "_amount",
          "type": "uint256"
        },
        {
          "indexed": false,
          "internalType": "address",
          "name": "_token",
          "type": "address"
        }
      ],
      "name": "WithdrawRequestApproved",
      "type": "event"
    },
    {
      "anonymous": false,
      "inputs": [
        {
          "indexed": false,
          "internalType": "uint256",
          "name": "_id",
          "type": "uint256"
        },
        {
          "indexed": false,
          "internalType": "uint256",
          "name": "_amount",
          "type": "uint256"
        },
        {
          "indexed": false,
          "internalType": "address",
          "name": "_token",
          "type": "address"
        },
        {
          "indexed": false,
          "internalType": "bool",
          "name": "_executed",
          "type": "bool"
        }
      ],
      "name": "WithdrawRequestExecuted",
      "type": "event"
    },
    {
      "anonymous": false,
      "inputs": [
        {
          "indexed": false,
          "internalType": "uint256",
          "name": "_id",
          "type": "uint256"
        },
        {
          "indexed": false,
          "internalType": "uint256",
          "name": "_amount",
          "type": "uint256"
        },
        {
          "indexed": false,
          "internalType": "address",
          "name": "_token",
          "type": "address"
        },
        {
          "indexed": false,
          "internalType": "bool",
          "name": "_executed",
          "type": "bool"
        }
      ],
      "name": "WithdrawRequestRegistered",
      "type": "event"
    },
    {
      "inputs": [
        {
          "internalType": "uint256",
          "name": "_id",
          "type": "uint256"
        }
      ],
      "name": "approveWithdrawRequest",
      "outputs": [],
      "stateMutability": "nonpayable",
      "type": "function"
    },
    {
      "inputs": [
        {
          "internalType": "address",
          "name": "_newAddress",
          "type": "address"
        }
      ],
      "name": "changeWithdrawAddressRequest",
      "outputs": [],
      "stateMutability": "nonpayable",
      "type": "function"
    },
    {
      "inputs": [],
      "name": "confirmWithdrawAddressChange",
      "outputs": [],
      "stateMutability": "nonpayable",
      "type": "function"
    },
    {
      "inputs": [
        {
          "internalType": "uint256",
          "name": "_id",
          "type": "uint256"
        }
      ],
      "name": "executeWithdrawRequest",
      "outputs": [],
      "stateMutability": "payable",
      "type": "function"
    },
    {
      "inputs": [
        {
          "internalType": "address",
          "name": "_token",
          "type": "address"
        }
      ],
      "name": "getBalance",
      "outputs": [
        {
          "internalType": "uint256",
          "name": "",
          "type": "uint256"
        }
      ],
      "stateMutability": "view",
      "type": "function"
    },
    {
      "inputs": [],
      "name": "getInvoiceIds",
      "outputs": [
        {
          "internalType": "uint256[]",
          "name": "",
          "type": "uint256[]"
        }
      ],
      "stateMutability": "view",
      "type": "function"
    },
    {
      "inputs": [],
      "name": "getSummary",
      "outputs": [
        {
          "internalType": "address[]",
          "name": "",
          "type": "address[]"
        },
        {
          "internalType": "address[]",
          "name": "",
          "type": "address[]"
        },
        {
          "internalType": "address",
          "name": "",
          "type": "address"
        },
        {
          "internalType": "uint256",
          "name": "",
          "type": "uint256"
        }
      ],
      "stateMutability": "view",
      "type": "function"
    },
    {
      "inputs": [
        {
          "internalType": "uint256",
          "name": "_invoiceId",
          "type": "uint256"
        }
      ],
      "name": "handleTransfer",
      "outputs": [],
      "stateMutability": "payable",
      "type": "function"
    },
    {
      "inputs": [
        {
          "internalType": "uint256",
          "name": "",
          "type": "uint256"
        }
      ],
      "name": "invoiceIds",
      "outputs": [
        {
          "internalType": "uint256",
          "name": "",
          "type": "uint256"
        }
      ],
      "stateMutability": "view",
      "type": "function"
    },
    {
      "inputs": [
        {
          "internalType": "uint256",
          "name": "",
          "type": "uint256"
        }
      ],
      "name": "invoices",
      "outputs": [
        {
          "internalType": "address",
          "name": "customer",
          "type": "address"
        },
        {
          "internalType": "uint256",
          "name": "id",
          "type": "uint256"
        },
        {
          "internalType": "uint256",
          "name": "amount",
          "type": "uint256"
        },
        {
          "internalType": "address",
          "name": "token",
          "type": "address"
        },
        {
          "internalType": "uint256",
          "name": "expiration",
          "type": "uint256"
        }
      ],
      "stateMutability": "view",
      "type": "function"
    },
    {
      "inputs": [
        {
          "internalType": "uint256",
          "name": "_id",
          "type": "uint256"
        }
      ],
      "name": "isWithdrawConfirmed",
      "outputs": [
        {
          "internalType": "bool",
          "name": "",
          "type": "bool"
        }
      ],
      "stateMutability": "view",
      "type": "function"
    },
    {
      "inputs": [],
      "name": "newWithdrawAddress",
      "outputs": [
        {
          "internalType": "address",
          "name": "",
          "type": "address"
        }
      ],
      "stateMutability": "view",
      "type": "function"
    },
    {
      "inputs": [
        {
          "internalType": "uint256",
          "name": "",
          "type": "uint256"
        }
      ],
      "name": "owners",
      "outputs": [
        {
          "internalType": "address",
          "name": "",
          "type": "address"
        }
      ],
      "stateMutability": "view",
      "type": "function"
    },
    {
      "inputs": [
        {
          "internalType": "address",
          "name": "",
          "type": "address"
        }
      ],
      "name": "ownersMappings",
      "outputs": [
        {
          "internalType": "bool",
          "name": "",
          "type": "bool"
        }
      ],
      "stateMutability": "view",
      "type": "function"
    },
    {
      "inputs": [],
      "name": "receiptNFT",
      "outputs": [
        {
          "internalType": "contract IReceiptNFT",
          "name": "",
          "type": "address"
        }
      ],
      "stateMutability": "view",
      "type": "function"
    },
    {
      "inputs": [
        {
          "internalType": "uint256",
          "name": "_invoiceId",
          "type": "uint256"
        },
        {
          "internalType": "address",
          "name": "_customer",
          "type": "address"
        },
        {
          "internalType": "uint256",
          "name": "_amount",
          "type": "uint256"
        },
        {
          "internalType": "address",
          "name": "_token",
          "type": "address"
        },
        {
          "internalType": "uint256",
          "name": "_expiresInSec",
          "type": "uint256"
        }
      ],
      "name": "registerInvoice",
      "outputs": [],
      "stateMutability": "nonpayable",
      "type": "function"
    },
    {
      "inputs": [
        {
          "internalType": "uint256",
          "name": "_amount",
          "type": "uint256"
        },
        {
          "internalType": "address",
          "name": "_token",
          "type": "address"
        }
      ],
      "name": "registerWithdrawRequest",
      "outputs": [
        {
          "internalType": "uint256",
          "name": "",
          "type": "uint256"
        }
      ],
      "stateMutability": "nonpayable",
      "type": "function"
    },
    {
      "inputs": [
        {
          "internalType": "uint256",
          "name": "_invoiceId",
          "type": "uint256"
        }
      ],
      "name": "removeInvoice",
      "outputs": [],
      "stateMutability": "nonpayable",
      "type": "function"
    },
    {
      "inputs": [],
      "name": "requiredOwnersApprovals",
      "outputs": [
        {
          "internalType": "uint256",
          "name": "",
          "type": "uint256"
        }
      ],
      "stateMutability": "view",
      "type": "function"
    },
    {
      "inputs": [
        {
          "internalType": "address",
          "name": "_receiptNFT",
          "type": "address"
        }
      ],
      "name": "setReceiptNFT",
      "outputs": [],
      "stateMutability": "nonpayable",
      "type": "function"
    },
    {
      "inputs": [
        {
          "internalType": "uint256",
          "name": "",
          "type": "uint256"
        }
      ],
      "name": "supportedTokensList",
      "outputs": [
        {
          "internalType": "address",
          "name": "",
          "type": "address"
        }
      ],
      "stateMutability": "view",
      "type": "function"
    },
    {
      "inputs": [],
      "name": "withdrawAddress",
      "outputs": [
        {
          "internalType": "address",
          "name": "",
          "type": "address"
        }
      ],
      "stateMutability": "view",
      "type": "function"
    },
    {
      "inputs": [
        {
          "internalType": "address",
          "name": "",
          "type": "address"
        }
      ],
      "name": "withdrawAddressChangeApprovals",
      "outputs": [
        {
          "internalType": "bool",
          "name": "",
          "type": "bool"
        }
      ],
      "stateMutability": "view",
      "type": "function"
    },
    {
      "inputs": [],
      "name": "withdrawAddressChangeConfirmationsCount",
      "outputs": [
        {
          "internalType": "uint256",
          "name": "",
          "type": "uint256"
        }
      ],
      "stateMutability": "view",
      "type": "function"
    },
    {
      "inputs": [
        {
          "internalType": "uint256",
          "name": "_id",
          "type": "uint256"
        }
      ],
      "name": "withdrawRequestConfirmationsCount",
      "outputs": [
        {
          "internalType": "uint256",
          "name": "",
          "type": "uint256"
        }
      ],
      "stateMutability": "view",
      "type": "function"
    },
    {
      "inputs": [
        {
          "internalType": "uint256",
          "name": "",
          "type": "uint256"
        }
      ],
      "name": "withdrawRequests",
      "outputs": [
        {
          "internalType": "uint256",
          "name": "id",
          "type": "uint256"
        },
        {
          "internalType": "uint256",
          "name": "amount",
          "type": "uint256"
        },
        {
          "internalType": "address",
          "name": "token",
          "type": "address"
        },
        {
          "internalType": "bool",
          "name": "executed",
          "type": "bool"
        },
        {
          "internalType": "bytes",
          "name": "data",
          "type": "bytes"
        }
      ],
      "stateMutability": "view",
      "type": "function"
    }
  ],
  "bytecode": "0x608060405260006007553480156200001657600080fd5b5060405162002e3438038062002e348339810160408190526200003991620004e0565b6000845111620000905760405162461bcd60e51b815260206004820152601360248201527f4f574e4552535f4152455f52455155495245440000000000000000000000000060448201526064015b60405180910390fd5b6001600160a01b038316620000e85760405162461bcd60e51b815260206004820152601960248201527f57495448445241575f414444524553535f524551554952454400000000000000604482015260640162000087565b83518160ff1611156200013e5760405162461bcd60e51b815260206004820152601860248201527f494e56414c49445f415050524f56414c535f4e554d4245520000000000000000604482015260640162000087565b60ff8116600955600c8054336001600160a01b031991821617909155600880549091166001600160a01b038516179055835162000181600a60208701836200037f565b5060005b81811015620001f0576001600b6000888481518110620001a957620001a962000576565b6020908102919091018101516001600160a01b03168252810191909152604001600020805460ff191691151591909117905580620001e7816200058c565b91505062000185565b5060008052600260205260008051602062002e148339815191525460ff166200027357600260205260008051602062002e14833981519152805460ff191660019081179091556003805491820181556000527fc2575a0e9e593c00f959f8c92f12db2869c3395a3b0502d05e2516446f71f85b0180546001600160a01b03191690555b825160005b818110156200037257600085828151811062000298576200029862000576565b6020908102919091018101516001600160a01b0381166000908152600290925260409091205490915060ff1615620002d157506200035d565b6001600160a01b038116620002e757506200035d565b63ffffffff813b16156200035b576001600160a01b0381166000818152600260205260408120805460ff191660019081179091556003805491820181559091527fc2575a0e9e593c00f959f8c92f12db2869c3395a3b0502d05e2516446f71f85b0180546001600160a01b03191690911790555b505b8062000369816200058c565b91505062000278565b50505050505050620005b4565b828054828255906000526020600020908101928215620003d7579160200282015b82811115620003d757825182546001600160a01b0319166001600160a01b03909116178255602090920191600190910190620003a0565b50620003e5929150620003e9565b5090565b5b80821115620003e55760008155600101620003ea565b634e487b7160e01b600052604160045260246000fd5b80516001600160a01b03811681146200042e57600080fd5b919050565b600082601f8301126200044557600080fd5b815160206001600160401b038083111562000464576200046462000400565b8260051b604051601f19603f830116810181811084821117156200048c576200048c62000400565b604052938452858101830193838101925087851115620004ab57600080fd5b83870191505b84821015620004d557620004c58262000416565b83529183019190830190620004b1565b979650505050505050565b60008060008060808587031215620004f757600080fd5b84516001600160401b03808211156200050f57600080fd5b6200051d8883890162000433565b95506200052d6020880162000416565b945060408701519150808211156200054457600080fd5b50620005538782880162000433565b925050606085015160ff811681146200056b57600080fd5b939692955090935050565b634e487b7160e01b600052603260045260246000fd5b600060018201620005ad57634e487b7160e01b600052601160045260246000fd5b5060010190565b61285080620005c46000396000f3fe6080604052600436106101815760003560e01c8063992a7dfb116100d1578063d7a7b8991161008a578063ebb1a6e911610064578063ebb1a6e9146104df578063f296727c146104ff578063f6ede2611461052f578063f8b2cb4f1461054f57600080fd5b8063d7a7b8991461048a578063d854ce47146104aa578063e5a57b52146104bf57600080fd5b8063992a7dfb146103c45780639dbdfa38146103f5578063a768e83b14610415578063b7a55f4a1461042a578063d1f26b3f1461044a578063d75e172f1461046a57600080fd5b80634e6d14051161013e57806363c918771161011857806363c918771461032457806364f0545014610344578063660fafb4146103645780636d0aad85146103a457600080fd5b80634e6d14051461025057806356ae262c146102de5780635731f10e1461030057600080fd5b8063025e7c27146101865780631581b600146101c357806321ebfdda146101e35780632c87cc80146101f85780633e9dee481461020b5780634051ddac1461022b575b600080fd5b34801561019257600080fd5b506101a66101a13660046122f1565b61056f565b6040516001600160a01b0390911681526020015b60405180910390f35b3480156101cf57600080fd5b506008546101a6906001600160a01b031681565b6101f66101f13660046122f1565b610599565b005b6101f66102063660046122f1565b610b54565b34801561021757600080fd5b506101f6610226366004612321565b610de8565b34801561023757600080fd5b50610240610f7d565b6040516101ba9493929190612387565b34801561025c57600080fd5b506102a761026b3660046122f1565b600060208190529081526040902080546001820154600283015460038401546004909401546001600160a01b0393841694929391929091169085565b604080516001600160a01b03968716815260208101959095528401929092529092166060820152608081019190915260a0016101ba565b3480156102ea57600080fd5b506102f3611066565b6040516101ba91906123c9565b34801561030c57600080fd5b5061031660095481565b6040519081526020016101ba565b34801561033057600080fd5b506101a661033f3660046122f1565b6110be565b34801561035057600080fd5b5061031661035f3660046122f1565b6110ce565b34801561037057600080fd5b5061039461037f366004612321565b600b6020526000908152604090205460ff1681565b60405190151581526020016101ba565b3480156103b057600080fd5b506103166103bf36600461240d565b611160565b3480156103d057600080fd5b506103e46103df3660046122f1565b6111af565b6040516101ba959493929190612489565b34801561040157600080fd5b506103946104103660046122f1565b611278565b34801561042157600080fd5b506101f661128e565b34801561043657600080fd5b506006546101a6906001600160a01b031681565b34801561045657600080fd5b506101f6610465366004612321565b61145b565b34801561047657600080fd5b506101f66104853660046122f1565b6114ac565b34801561049657600080fd5b50600d546101a6906001600160a01b031681565b3480156104b657600080fd5b50610316611640565b3480156104cb57600080fd5b506103166104da3660046122f1565b6116bd565b3480156104eb57600080fd5b506101f66104fa3660046122f1565b6116de565b34801561050b57600080fd5b5061039461051a366004612321565b60056020526000908152604090205460ff1681565b34801561053b57600080fd5b506101f661054a3660046124be565b611868565b34801561055b57600080fd5b5061031661056a366004612321565b611be2565b600a818154811061057f57600080fd5b6000918252602090912001546001600160a01b0316905081565b6000818152602081905260409020600181015482146105f35760405162461bcd60e51b815260206004820152601160248201527012539593d250d157d393d517d193d55391607a1b60448201526064015b60405180910390fd5b80546001600160a01b0316331461064c5760405162461bcd60e51b815260206004820152601a60248201527f435553544f4d45525f414444524553535f4e4f545f4d4154434800000000000060448201526064016105ea565b80600401544211156106925760405162461bcd60e51b815260206004820152600f60248201526e12539593d250d157d1561412549151608a1b60448201526064016105ea565b60038101546000906001600160a01b03163b63ffffffff16156109955760038201546002830154604051636eb1769f60e11b81523360048201523060248201526001600160a01b0390921691829063dd62ed3e90604401602060405180830381865afa158015610706573d6000803e3d6000fd5b505050506040513d601f19601f8201168201806040525081019061072a919061250c565b10156107785760405162461bcd60e51b815260206004820152601860248201527f414c4c4f57414e43455f4e4f545f53554646494349454e54000000000000000060448201526064016105ea565b60028301546040516370a0823160e01b81523360048201526001600160a01b038316906370a0823190602401602060405180830381865afa1580156107c1573d6000803e3d6000fd5b505050506040513d601f19601f820116820180604052508101906107e5919061250c565b10156108035760405162461bcd60e51b81526004016105ea90612525565b6002830154610820906001600160a01b0383169033903090611c66565b600d546001600160a01b0316156108c857600d546003840154600285015460405163a90c49f960e01b8152306004820152602481018890523360448201526001600160a01b039283166064820152608481019190915291169063a90c49f99060a4016020604051808303816000875af11580156108a1573d6000803e3d6000fd5b505050506040513d601f19601f820116820180604052508101906108c5919061250c565b91505b600084815260208181526040918290206003810154815460018301546002840154600490940154865191825294810193909352828501939093523060608301526080820186905292516001600160a01b0393841693909216917ffb0334966223b642c2f9583e0e38f56d30df89aefa1d2d54f859804febf4ad329181900360a00190a3600084815260208190526040812080546001600160a01b03199081168255600182018390556002820183905560038201805490911690556004015561098f84611cd1565b50505050565b348260020154146109e05760405162461bcd60e51b81526020600482015260156024820152740a68a9ca8be829a9eaa9ca8be9c9ea8be9a82a8869605b1b60448201526064016105ea565b600d546001600160a01b031615610a8857600d546003830154600284015460405163a90c49f960e01b8152306004820152602481018790523360448201526001600160a01b039283166064820152608481019190915291169063a90c49f99060a4016020604051808303816000875af1158015610a61573d6000803e3d6000fd5b505050506040513d601f19601f82011682018060405250810190610a85919061250c565b90505b600083815260208181526040918290206003810154815460018301546002840154600490940154865191825294810193909352828501939093523060608301526080820185905292516001600160a01b0393841693909216917ffb0334966223b642c2f9583e0e38f56d30df89aefa1d2d54f859804febf4ad329181900360a00190a3600083815260208190526040812080546001600160a01b031990811682556001820183905560028201839055600382018054909116905560040155610b4f83611cd1565b505050565b336000908152600b602052604090205460ff16610b835760405162461bcd60e51b81526004016105ea90612553565b610b8c81611278565b610bd85760405162461bcd60e51b815260206004820152601860248201527f4e4f545f454e4f5547485f434f4e4649524d4154494f4e53000000000000000060448201526064016105ea565b600081815260046020526040902060020154600160a01b900460ff1615610c3d5760405162461bcd60e51b815260206004820152601960248201527815d2551211149055d7d053149150511657d1561150d5551151603a1b60448201526064016105ea565b6000818152600460205260409020600201546001600160a01b0316610d9d5760008181526004602052604080822060028101805460ff60a01b1916600160a01b179055600854600182015492516001600160a01b039091169291610ca6916003909101906125ad565b60006040518083038185875af1925050503d8060008114610ce3576040519150601f19603f3d011682016040523d82523d6000602084013e610ce8565b606091505b5050905080610d2f5760405162461bcd60e51b815260206004820152601360248201527211551217d514905394d1915497d19052531151606a1b60448201526064016105ea565b6000828152600460209081526040918290206001808201546002909201548451878152938401929092526001600160a01b0390911682840152606082015290517fd06473f54f367f5bec1000de7268f9b7f60b1da5f67c03fae9186fdbf320dba99181900360800190a15050565b600081815260046020526040902060028101805460ff60a01b198116600160a01b179091556008546001909201546001600160a01b0391821692610d2f928492911690611ceb565b50565b336000908152600b602052604090205460ff16610e175760405162461bcd60e51b81526004016105ea90612553565b6001600160a01b038116610e5f5760405162461bcd60e51b815260206004820152600f60248201526e494e56414c49445f4144445245535360881b60448201526064016105ea565b6008546001600160a01b03808316911603610ebc5760405162461bcd60e51b815260206004820152601760248201527f4e45575f414444524553535f4d5553545f42455f53455400000000000000000060448201526064016105ea565b60005b600a54811015610f1e5760056000600a8381548110610ee057610ee0612623565b60009182526020808320909101546001600160a01b031683528201929092526040019020805460ff1916905580610f168161264f565b915050610ebf565b50600680546001600160a01b0319166001600160a01b038316908117909155604080519182523360208301527f2b0922972416e22d209302789a7a347ca228dcdfa06b0fb9f6530493c5434b7d910160405180910390a1610de561128e565b606080600080600a6003600860009054906101000a90046001600160a01b031660095483805480602002602001604051908101604052809291908181526020018280548015610ff557602002820191906000526020600020905b81546001600160a01b03168152600190910190602001808311610fd7575b505050505093508280548060200260200160405190810160405280929190818152602001828054801561105157602002820191906000526020600020905b81546001600160a01b03168152600190910190602001808311611033575b50505050509250935093509350935090919293565b606060018054806020026020016040519081016040528092919081815260200182805480156110b457602002820191906000526020600020905b8154815260200190600101908083116110a0575b5050505050905090565b6003818154811061057f57600080fd5b600080805b600a5481101561115957600460008581526020019081526020016000206004016000600a838154811061110857611108612623565b60009182526020808320909101546001600160a01b0316835282019290925260400190205460ff16151560010361114757816111438161264f565b9250505b806111518161264f565b9150506110d3565b5092915050565b336000908152600b602052604081205460ff1661118f5760405162461bcd60e51b81526004016105ea90612553565b600061119b8484611d1b565b90506111a6816114ac565b90505b92915050565b6004602052600090815260409020805460018201546002830154600384018054939492936001600160a01b03831693600160a01b90930460ff169291906111f590612579565b80601f016020809104026020016040519081016040528092919081815260200182805461122190612579565b801561126e5780601f106112435761010080835404028352916020019161126e565b820191906000526020600020905b81548152906001019060200180831161125157829003601f168201915b5050505050905085565b6000600954611286836110ce565b101592915050565b336000908152600b602052604090205460ff166112bd5760405162461bcd60e51b81526004016105ea90612553565b3360009081526005602052604090205460ff16156113115760405162461bcd60e51b81526020600482015260116024820152701053149150511657d0d3d3919254935151607a1b60448201526064016105ea565b33600081815260056020908152604091829020805460ff1916600117905560065482516001600160a01b039091168152908101929092527fddba811775e7d1ebcf528735a977db455687c2efa4f71b2f394e82470872ecd1910160405180910390a160095461137e611640565b106114595760088054600680546001600160a01b03198084166001600160a01b03838116919091179095551690551660005b600a5481101561140f5760056000600a83815481106113d1576113d1612623565b60009182526020808320909101546001600160a01b031683528201929092526040019020805460ff19169055806114078161264f565b9150506113b0565b50600854604080516001600160a01b03808516825290921660208301527f49309b5d08d7bbaebcda96dda577818eee99f98cd01bb4a546ffb81653b40041910160405180910390a1505b565b336000908152600b602052604090205460ff1661148a5760405162461bcd60e51b81526004016105ea90612553565b600d80546001600160a01b0319166001600160a01b0392909216919091179055565b336000908152600b602052604090205460ff166114db5760405162461bcd60e51b81526004016105ea90612553565b600081815260046020526040902060020154600160a01b900460ff16156115405760405162461bcd60e51b815260206004820152601960248201527815d2551211149055d7d053149150511657d1561150d5551151603a1b60448201526064016105ea565b6000818152600460208181526040808420338552909201905290205460ff16156115a05760405162461bcd60e51b81526020600482015260116024820152701053149150511657d0d3d3919254935151607a1b60448201526064016105ea565b6000818152600460208181526040808420338086528185018452828620805460ff1916600190811790915595879052938352938401546002909401548151868152928301939093528101929092526001600160a01b031660608201527f290e497efdb0dd5ff1b04494163110ffcef2979c5bc76a9a26a9368f2f6249f29060800160405180910390a161163281611278565b15610de557610de581610b54565b600080805b600a548110156116b75760056000600a838154811061166657611666612623565b60009182526020808320909101546001600160a01b0316835282019290925260400190205460ff1615156001036116a557816116a18161264f565b9250505b806116af8161264f565b915050611645565b50919050565b600181815481106116cd57600080fd5b600091825260209091200154905081565b336000908152600b602052604090205460ff1661170d5760405162461bcd60e51b81526004016105ea90612553565b600081116117525760405162461bcd60e51b81526020600482015260126024820152711253959053125117d2539593d250d157d25160721b60448201526064016105ea565b60008181526020819052604090206001015481146117a65760405162461bcd60e51b815260206004820152601160248201527012539593d250d157d393d517d193d55391607a1b60448201526064016105ea565b60008181526020818152604091829020600181015481546002830154600384015460049094015486519384526001600160a01b0392831695840195909552948201949094529216606083015260808201527f4a9220e3f51737c89f656dd6c1b766250e200d6d80c4f1cdcfad85909e68109e9060a00160405180910390a1600081815260208190526040812080546001600160a01b031990811682556001820183905560028201839055600382018054909116905560040155610de581611cd1565b336000908152600b602052604090205460ff166118975760405162461bcd60e51b81526004016105ea90612553565b600083116118d85760405162461bcd60e51b815260206004820152600e60248201526d1253959053125117d05353d5539560921b60448201526064016105ea565b6001600160a01b0384166119205760405162461bcd60e51b815260206004820152600f60248201526e494e56414c49445f4144445245535360881b60448201526064016105ea565b600085116119655760405162461bcd60e51b81526020600482015260126024820152711253959053125117d2539593d250d157d25160721b60448201526064016105ea565b600081116119b55760405162461bcd60e51b815260206004820152601860248201527f494e56414c49445f45585049524154494f4e5f56414c5545000000000000000060448201526064016105ea565b6001600160a01b03821660009081526002602052604090205460ff161515600114611a1e5760405162461bcd60e51b8152602060048201526019602482015278115490cc8c17d513d2d15397d393d517d4d5541413d4951151603a1b60448201526064016105ea565b60008581526020819052604090206004015415611a755760405162461bcd60e51b815260206004820152601560248201527412539593d250d157d053149150511657d1561254d5605a1b60448201526064016105ea565b6000611a818242612668565b905060018690806001815401808255809150506001900390600052602060002001600090919091909150556040518060a00160405280866001600160a01b03168152602001878152602001858152602001846001600160a01b031681526020018281525060008088815260200190815260200160002060008201518160000160006101000a8154816001600160a01b0302191690836001600160a01b03160217905550602082015181600101556040820151816002015560608201518160030160006101000a8154816001600160a01b0302191690836001600160a01b03160217905550608082015181600401559050507f5b7ac58adf4d4afccc6b58de721e6d756f26d1741c8cbfee9e890c919f972a218686868685604051611bd29594939291909485526001600160a01b03938416602086015260408501929092529091166060830152608082015260a00190565b60405180910390a1505050505050565b60006001600160a01b038216611bf9575047919050565b6040516370a0823160e01b81523060048201526001600160a01b038316906370a0823190602401602060405180830381865afa158015611c3d573d6000803e3d6000fd5b505050506040513d601f19601f820116820180604052508101906111a9919061250c565b919050565b6040516001600160a01b038085166024830152831660448201526064810182905261098f9085906323b872dd60e01b906084015b60408051601f198184030181529190526020810180516001600160e01b03166001600160e01b031990931692909217909152611f69565b6000611cdc8261203b565b9050611ce7816120ca565b5050565b6040516001600160a01b038316602482015260448101829052610b4f90849063a9059cbb60e01b90606401611c9a565b336000908152600b602052604081205460ff16611d4a5760405162461bcd60e51b81526004016105ea90612553565b60008311611d8b5760405162461bcd60e51b815260206004820152600e60248201526d1253959053125117d05353d5539560921b60448201526064016105ea565b6001600160a01b03821660009081526002602052604090205460ff161515600114611df45760405162461bcd60e51b8152602060048201526019602482015278115490cc8c17d513d2d15397d393d517d4d5541413d4951151603a1b60448201526064016105ea565b6001600160a01b03821615611e93576040516370a0823160e01b8152306004820152829084906001600160a01b038316906370a0823190602401602060405180830381865afa158015611e4b573d6000803e3d6000fd5b505050506040513d601f19601f82011682018060405250810190611e6f919061250c565b1015611e8d5760405162461bcd60e51b81526004016105ea90612525565b50611eb3565b82471015611eb35760405162461bcd60e51b81526004016105ea90612525565b600754611ec1906001612668565b60078190556000818152600460205260408120918255600182018590556002820180546001600160a81b0319166001600160a01b0386161790556003820190611f0c903690836126df565b5060075460408051918252602082018690526001600160a01b0385168282015260006060830152517f3de41e8a78563f837e9e091c8c40d5f855aea89fcbf3ed310fb145a740e5fa3f9181900360800190a1505060075492915050565b6000611fbe826040518060400160405280602081526020017f5361666545524332303a206c6f772d6c6576656c2063616c6c206661696c6564815250856001600160a01b03166121619092919063ffffffff16565b805190915015610b4f5780806020019051810190611fdc91906127a0565b610b4f5760405162461bcd60e51b815260206004820152602a60248201527f5361666545524332303a204552433230206f7065726174696f6e20646964206e6044820152691bdd081cdd58d8d9595960b21b60648201526084016105ea565b600154600090815b8181101561208857836001828154811061205f5761205f612623565b906000526020600020015403612076579392505050565b806120808161264f565b915050612043565b5060405162461bcd60e51b815260206004820152601660248201527512539593d250d157d25117d393d517d25397d31254d560521b60448201526064016105ea565b600180546120d891906127c2565b8110156121375760016120eb8282612668565b815481106120fb576120fb612623565b90600052602060002001546001828154811061211957612119612623565b6000918252602090912001558061212f8161264f565b9150506120ca565b6001805480612148576121486127d5565b6001900381819060005260206000200160009055905550565b60606121708484600085612178565b949350505050565b6060824710156121d95760405162461bcd60e51b815260206004820152602660248201527f416464726573733a20696e73756666696369656e742062616c616e636520666f6044820152651c8818d85b1b60d21b60648201526084016105ea565b600080866001600160a01b031685876040516121f591906127eb565b60006040518083038185875af1925050503d8060008114612232576040519150601f19603f3d011682016040523d82523d6000602084013e612237565b606091505b509150915061224887838387612253565b979650505050505050565b606083156122c25782516000036122bb576001600160a01b0385163b6122bb5760405162461bcd60e51b815260206004820152601d60248201527f416464726573733a2063616c6c20746f206e6f6e2d636f6e747261637400000060448201526064016105ea565b5081612170565b61217083838151156122d75781518083602001fd5b8060405162461bcd60e51b81526004016105ea9190612807565b60006020828403121561230357600080fd5b5035919050565b80356001600160a01b0381168114611c6157600080fd5b60006020828403121561233357600080fd5b61233c8261230a565b9392505050565b600081518084526020808501945080840160005b8381101561237c5781516001600160a01b031687529582019590820190600101612357565b509495945050505050565b60808152600061239a6080830187612343565b82810360208401526123ac8187612343565b6001600160a01b0395909516604084015250506060015292915050565b6020808252825182820181905260009190848201906040850190845b81811015612401578351835292840192918401916001016123e5565b50909695505050505050565b6000806040838503121561242057600080fd5b823591506124306020840161230a565b90509250929050565b60005b8381101561245457818101518382015260200161243c565b50506000910152565b60008151808452612475816020860160208601612439565b601f01601f19169290920160200192915050565b85815284602082015260018060a01b0384166040820152821515606082015260a06080820152600061224860a083018461245d565b600080600080600060a086880312156124d657600080fd5b853594506124e66020870161230a565b9350604086013592506124fb6060870161230a565b949793965091946080013592915050565b60006020828403121561251e57600080fd5b5051919050565b602080825260149082015273494e53554646494349454e545f42414c414e434560601b604082015260600190565b6020808252600c908201526b15539055551213d49256915160a21b604082015260600190565b600181811c9082168061258d57607f821691505b6020821081036116b757634e487b7160e01b600052602260045260246000fd5b60008083546125bb81612579565b600182811680156125d357600181146125e857612617565b60ff1984168752821515830287019450612617565b8760005260208060002060005b8581101561260e5781548a8201529084019082016125f5565b50505082870194505b50929695505050505050565b634e487b7160e01b600052603260045260246000fd5b634e487b7160e01b600052601160045260246000fd5b60006001820161266157612661612639565b5060010190565b808201808211156111a9576111a9612639565b634e487b7160e01b600052604160045260246000fd5b601f821115610b4f57600081815260208120601f850160051c810160208610156126b85750805b601f850160051c820191505b818110156126d7578281556001016126c4565b505050505050565b67ffffffffffffffff8311156126f7576126f761267b565b61270b836127058354612579565b83612691565b6000601f84116001811461273f57600085156127275750838201355b600019600387901b1c1916600186901b178355612799565b600083815260209020601f19861690835b828110156127705786850135825560209485019460019092019101612750565b508682101561278d5760001960f88860031b161c19848701351681555b505060018560011b0183555b5050505050565b6000602082840312156127b257600080fd5b815180151581146111a657600080fd5b818103818111156111a9576111a9612639565b634e487b7160e01b600052603160045260246000fd5b600082516127fd818460208701612439565b9190910192915050565b60208152600061233c602083018461245d56fea2646970667358221220a838cf7406b1de86827c5c054a5eba8d0c43ef3c0e2b0dbbca070f6727dd033564736f6c63430008140033ac33ff75c19e70fe83507db0d683fd3465c996598dc972688b7ace676c89077b",
  "linkReferences": {},
  "deployedLinkReferences": {}
}